{
	"FundMe.sol": {
		"FundMe": {
			"abi": [
				{
					"inputs": [],
					"stateMutability": "nonpayable",
					"type": "constructor"
				},
				{
					"inputs": [],
					"name": "fund",
					"outputs": [],
					"stateMutability": "payable",
					"type": "function"
				},
				{
					"inputs": [
						{
							"internalType": "address",
							"name": "",
							"type": "address"
						}
					],
					"name": "funderToAmount",
					"outputs": [
						{
							"internalType": "uint256",
							"name": "",
							"type": "uint256"
						}
					],
					"stateMutability": "view",
					"type": "function"
				},
				{
					"inputs": [],
					"name": "getChainlinkDataFeedLatestAnswer",
					"outputs": [
						{
							"internalType": "int256",
							"name": "",
							"type": "int256"
						}
					],
					"stateMutability": "view",
					"type": "function"
				},
				{
					"inputs": [],
					"name": "getFund",
					"outputs": [],
					"stateMutability": "nonpayable",
					"type": "function"
				},
				{
					"inputs": [],
					"name": "owner",
					"outputs": [
						{
							"internalType": "address",
							"name": "",
							"type": "address"
						}
					],
					"stateMutability": "view",
					"type": "function"
				},
				{
					"inputs": [],
					"name": "refund",
					"outputs": [],
					"stateMutability": "nonpayable",
					"type": "function"
				}
			],
			"devdoc": {
				"kind": "dev",
				"methods": {},
				"version": 1
			},
			"evm": {
				"assembly": "    /* \"FundMe.sol\":173:3189  contract FundMe{... */\n  mstore(0x40, 0x80)\n    /* \"FundMe.sol\":331:343  1 * 10 ** 18 */\n  0x0de0b6b3a7640000\n    /* \"FundMe.sol\":313:343  uint MIN_AMOUNT = 1 * 10 ** 18 */\n  0x01\n  sstore\n    /* \"FundMe.sol\":427:440  10 * 10 ** 18 */\n  0x8ac7230489e80000\n    /* \"FundMe.sol\":406:440  uint TARGET_AMOUNT = 10 * 10 ** 18 */\n  0x03\n  sstore\n    /* \"FundMe.sol\":486:650  constructor () {... */\n  callvalue\n  dup1\n  iszero\n  tag_1\n  jumpi\n  revert(0x00, 0x00)\ntag_1:\n  pop\n    /* \"FundMe.sol\":572:614  0x694AA1769357215DE4FAC081bf1f309aDC325306 */\n  0x694aa1769357215de4fac081bf1f309adc325306\n    /* \"FundMe.sol\":538:547  priceFeed */\n  0x02\n  0x00\n    /* \"FundMe.sol\":538:615  priceFeed = AggregatorV3Interface(0x694AA1769357215DE4FAC081bf1f309aDC325306) */\n  0x0100\n  exp\n  dup2\n  sload\n  dup2\n  0xffffffffffffffffffffffffffffffffffffffff\n  mul\n  not\n  and\n  swap1\n  dup4\n  0xffffffffffffffffffffffffffffffffffffffff\n  and\n  mul\n  or\n  swap1\n  sstore\n  pop\n    /* \"FundMe.sol\":633:643  msg.sender */\n  caller\n    /* \"FundMe.sol\":625:630  owner */\n  0x04\n  0x00\n    /* \"FundMe.sol\":625:643  owner = msg.sender */\n  0x0100\n  exp\n  dup2\n  sload\n  dup2\n  0xffffffffffffffffffffffffffffffffffffffff\n  mul\n  not\n  and\n  swap1\n  dup4\n  0xffffffffffffffffffffffffffffffffffffffff\n  and\n  mul\n  or\n  swap1\n  sstore\n  pop\n    /* \"FundMe.sol\":173:3189  contract FundMe{... */\n  dataSize(sub_0)\n  dup1\n  dataOffset(sub_0)\n  0x00\n  codecopy\n  0x00\n  return\nstop\n\nsub_0: assembly {\n        /* \"FundMe.sol\":173:3189  contract FundMe{... */\n      mstore(0x40, 0x80)\n      jumpi(tag_1, lt(calldatasize, 0x04))\n      shr(0xe0, calldataload(0x00))\n      dup1\n      0x4407e1e8\n      eq\n      tag_2\n      jumpi\n      dup1\n      0x590e1ae3\n      eq\n      tag_3\n      jumpi\n      dup1\n      0x8da5cb5b\n      eq\n      tag_4\n      jumpi\n      dup1\n      0x8edd6eb6\n      eq\n      tag_5\n      jumpi\n      dup1\n      0xb60d4288\n      eq\n      tag_6\n      jumpi\n      dup1\n      0xbea4dfb5\n      eq\n      tag_7\n      jumpi\n    tag_1:\n      revert(0x00, 0x00)\n        /* \"FundMe.sol\":194:241  mapping (address => uint) public funderToAmount */\n    tag_2:\n      callvalue\n      dup1\n      iszero\n      tag_8\n      jumpi\n      revert(0x00, 0x00)\n    tag_8:\n      pop\n      tag_9\n      0x04\n      dup1\n      calldatasize\n      sub\n      dup2\n      add\n      swap1\n      tag_10\n      swap2\n      swap1\n      tag_11\n      jump\t// in\n    tag_10:\n      tag_12\n      jump\t// in\n    tag_9:\n      mload(0x40)\n      tag_13\n      swap2\n      swap1\n      tag_14\n      jump\t// in\n    tag_13:\n      mload(0x40)\n      dup1\n      swap2\n      sub\n      swap1\n      return\n        /* \"FundMe.sol\":2711:3186  function refund() external {... */\n    tag_3:\n      callvalue\n      dup1\n      iszero\n      tag_15\n      jumpi\n      revert(0x00, 0x00)\n    tag_15:\n      pop\n      tag_16\n      tag_17\n      jump\t// in\n    tag_16:\n      stop\n        /* \"FundMe.sol\":458:479  address public  owner */\n    tag_4:\n      callvalue\n      dup1\n      iszero\n      tag_18\n      jumpi\n      revert(0x00, 0x00)\n    tag_18:\n      pop\n      tag_19\n      tag_20\n      jump\t// in\n    tag_19:\n      mload(0x40)\n      tag_21\n      swap2\n      swap1\n      tag_22\n      jump\t// in\n    tag_21:\n      mload(0x40)\n      dup1\n      swap2\n      sub\n      swap1\n      return\n        /* \"FundMe.sol\":1986:2616  function getFund() external {... */\n    tag_5:\n      callvalue\n      dup1\n      iszero\n      tag_23\n      jumpi\n      revert(0x00, 0x00)\n    tag_23:\n      pop\n      tag_24\n      tag_25\n      jump\t// in\n    tag_24:\n      stop\n        /* \"FundMe.sol\":656:954  function fund() external payable {... */\n    tag_6:\n      tag_26\n      tag_27\n      jump\t// in\n    tag_26:\n      stop\n        /* \"FundMe.sol\":1008:1360  function getChainlinkDataFeedLatestAnswer() public view returns (int) {... */\n    tag_7:\n      callvalue\n      dup1\n      iszero\n      tag_28\n      jumpi\n      revert(0x00, 0x00)\n    tag_28:\n      pop\n      tag_29\n      tag_30\n      jump\t// in\n    tag_29:\n      mload(0x40)\n      tag_31\n      swap2\n      swap1\n      tag_32\n      jump\t// in\n    tag_31:\n      mload(0x40)\n      dup1\n      swap2\n      sub\n      swap1\n      return\n        /* \"FundMe.sol\":194:241  mapping (address => uint) public funderToAmount */\n    tag_12:\n      mstore(0x20, 0x00)\n      dup1\n      0x00\n      mstore\n      keccak256(0x00, 0x40)\n      0x00\n      swap2\n      pop\n      swap1\n      pop\n      sload\n      dup2\n      jump\t// out\n        /* \"FundMe.sol\":2711:3186  function refund() external {... */\n    tag_17:\n        /* \"FundMe.sol\":2748:2765  address myAddress */\n      0x00\n        /* \"FundMe.sol\":2768:2778  msg.sender */\n      caller\n        /* \"FundMe.sol\":2748:2778  address myAddress = msg.sender */\n      swap1\n      pop\n        /* \"FundMe.sol\":2788:2808  uint contractBalance */\n      0x00\n        /* \"FundMe.sol\":2811:2832  address(this).balance */\n      selfbalance\n        /* \"FundMe.sol\":2788:2832  uint contractBalance = address(this).balance */\n      swap1\n      pop\n        /* \"FundMe.sol\":2868:2881  TARGET_AMOUNT */\n      sload(0x03)\n        /* \"FundMe.sol\":2850:2865  contractBalance */\n      dup2\n        /* \"FundMe.sol\":2850:2881  contractBalance < TARGET_AMOUNT */\n      lt\n        /* \"FundMe.sol\":2842:2904  require(contractBalance < TARGET_AMOUNT, \"Target is reached!\") */\n      tag_34\n      jumpi\n      mload(0x40)\n      0x08c379a000000000000000000000000000000000000000000000000000000000\n      dup2\n      mstore\n      0x04\n      add\n      tag_35\n      swap1\n      tag_36\n      jump\t// in\n    tag_35:\n      mload(0x40)\n      dup1\n      swap2\n      sub\n      swap1\n      revert\n    tag_34:\n        /* \"FundMe.sol\":2914:2935  uint myContractAmount */\n      0x00\n        /* \"FundMe.sol\":2938:2952  funderToAmount */\n      0x00\n        /* \"FundMe.sol\":2938:2963  funderToAmount[myAddress] */\n      0x00\n        /* \"FundMe.sol\":2953:2962  myAddress */\n      dup5\n        /* \"FundMe.sol\":2938:2963  funderToAmount[myAddress] */\n      0xffffffffffffffffffffffffffffffffffffffff\n      and\n      0xffffffffffffffffffffffffffffffffffffffff\n      and\n      dup2\n      mstore\n      0x20\n      add\n      swap1\n      dup2\n      mstore\n      0x20\n      add\n      0x00\n      keccak256\n      sload\n        /* \"FundMe.sol\":2914:2963  uint myContractAmount = funderToAmount[myAddress] */\n      swap1\n      pop\n        /* \"FundMe.sol\":3000:3001  0 */\n      0x00\n        /* \"FundMe.sol\":2981:2997  myContractAmount */\n      dup2\n        /* \"FundMe.sol\":2981:3001  myContractAmount > 0 */\n      gt\n        /* \"FundMe.sol\":2973:3043  require(myContractAmount > 0, \"you have no balance in this contract!\") */\n      tag_37\n      jumpi\n      mload(0x40)\n      0x08c379a000000000000000000000000000000000000000000000000000000000\n      dup2\n      mstore\n      0x04\n      add\n      tag_38\n      swap1\n      tag_39\n      jump\t// in\n    tag_38:\n      mload(0x40)\n      dup1\n      swap2\n      sub\n      swap1\n      revert\n    tag_37:\n        /* \"FundMe.sol\":3053:3065  bool success */\n      0x00\n        /* \"FundMe.sol\":3098:3107  myAddress */\n      dup4\n        /* \"FundMe.sol\":3089:3113  payable (myAddress).call */\n      0xffffffffffffffffffffffffffffffffffffffff\n      and\n        /* \"FundMe.sol\":3121:3137  myContractAmount */\n      dup3\n        /* \"FundMe.sol\":3089:3142  payable (myAddress).call{value: myContractAmount}(\"\") */\n      mload(0x40)\n      tag_40\n      swap1\n      tag_41\n      jump\t// in\n    tag_40:\n      0x00\n      mload(0x40)\n      dup1\n      dup4\n      sub\n      dup2\n      dup6\n      dup8\n      gas\n      call\n      swap3\n      pop\n      pop\n      pop\n      returndatasize\n      dup1\n      0x00\n      dup2\n      eq\n      tag_44\n      jumpi\n      mload(0x40)\n      swap2\n      pop\n      and(add(returndatasize, 0x3f), not(0x1f))\n      dup3\n      add\n      0x40\n      mstore\n      returndatasize\n      dup3\n      mstore\n      returndatasize\n      0x00\n      0x20\n      dup5\n      add\n      returndatacopy\n      jump(tag_43)\n    tag_44:\n      0x60\n      swap2\n      pop\n    tag_43:\n      pop\n        /* \"FundMe.sol\":3075:3142  (success, ) = payable (myAddress).call{value: myContractAmount}(\"\") */\n      pop\n      dup1\n      swap2\n      pop\n      pop\n        /* \"FundMe.sol\":3160:3167  success */\n      dup1\n        /* \"FundMe.sol\":3152:3179  require(success, \"Failed!\") */\n      tag_45\n      jumpi\n      mload(0x40)\n      0x08c379a000000000000000000000000000000000000000000000000000000000\n      dup2\n      mstore\n      0x04\n      add\n      tag_46\n      swap1\n      tag_47\n      jump\t// in\n    tag_46:\n      mload(0x40)\n      dup1\n      swap2\n      sub\n      swap1\n      revert\n    tag_45:\n        /* \"FundMe.sol\":2738:3186  {... */\n      pop\n      pop\n      pop\n      pop\n        /* \"FundMe.sol\":2711:3186  function refund() external {... */\n      jump\t// out\n        /* \"FundMe.sol\":458:479  address public  owner */\n    tag_20:\n      0x04\n      0x00\n      swap1\n      sload\n      swap1\n      0x0100\n      exp\n      swap1\n      div\n      0xffffffffffffffffffffffffffffffffffffffff\n      and\n      dup2\n      jump\t// out\n        /* \"FundMe.sol\":1986:2616  function getFund() external {... */\n    tag_25:\n        /* \"FundMe.sol\":2024:2044  uint contractBalance */\n      0x00\n        /* \"FundMe.sol\":2047:2068  address(this).balance */\n      selfbalance\n        /* \"FundMe.sol\":2024:2068  uint contractBalance = address(this).balance */\n      swap1\n      pop\n        /* \"FundMe.sol\":2078:2092  address sender */\n      0x00\n        /* \"FundMe.sol\":2095:2105  msg.sender */\n      caller\n        /* \"FundMe.sol\":2078:2105  address sender = msg.sender */\n      swap1\n      pop\n        /* \"FundMe.sol\":2158:2171  TARGET_AMOUNT */\n      sload(0x03)\n        /* \"FundMe.sol\":2123:2154  convertEth2USD(contractBalance) */\n      tag_49\n        /* \"FundMe.sol\":2138:2153  contractBalance */\n      dup4\n        /* \"FundMe.sol\":2123:2137  convertEth2USD */\n      tag_50\n        /* \"FundMe.sol\":2123:2154  convertEth2USD(contractBalance) */\n      jump\t// in\n    tag_49:\n        /* \"FundMe.sol\":2123:2171  convertEth2USD(contractBalance) >= TARGET_AMOUNT */\n      lt\n      iszero\n        /* \"FundMe.sol\":2115:2200  require(convertEth2USD(contractBalance) >= TARGET_AMOUNT, \"Not Reach Target Amount!\") */\n      tag_51\n      jumpi\n      mload(0x40)\n      0x08c379a000000000000000000000000000000000000000000000000000000000\n      dup2\n      mstore\n      0x04\n      add\n      tag_52\n      swap1\n      tag_53\n      jump\t// in\n    tag_52:\n      mload(0x40)\n      dup1\n      swap2\n      sub\n      swap1\n      revert\n    tag_51:\n        /* \"FundMe.sol\":2227:2233  sender */\n      dup1\n        /* \"FundMe.sol\":2218:2233  owner == sender */\n      0xffffffffffffffffffffffffffffffffffffffff\n      and\n        /* \"FundMe.sol\":2218:2223  owner */\n      0x04\n      0x00\n      swap1\n      sload\n      swap1\n      0x0100\n      exp\n      swap1\n      div\n      0xffffffffffffffffffffffffffffffffffffffff\n      and\n        /* \"FundMe.sol\":2218:2233  owner == sender */\n      0xffffffffffffffffffffffffffffffffffffffff\n      and\n      eq\n        /* \"FundMe.sol\":2210:2260  require(owner == sender, \"you are not the owner!\") */\n      tag_54\n      jumpi\n      mload(0x40)\n      0x08c379a000000000000000000000000000000000000000000000000000000000\n      dup2\n      mstore\n      0x04\n      add\n      tag_55\n      swap1\n      tag_56\n      jump\t// in\n    tag_55:\n      mload(0x40)\n      dup1\n      swap2\n      sub\n      swap1\n      revert\n    tag_54:\n        /* \"FundMe.sol\":2486:2498  bool success */\n      0x00\n        /* \"FundMe.sol\":2531:2537  sender */\n      dup2\n        /* \"FundMe.sol\":2522:2543  payable (sender).call */\n      0xffffffffffffffffffffffffffffffffffffffff\n      and\n        /* \"FundMe.sol\":2551:2566  contractBalance */\n      dup4\n        /* \"FundMe.sol\":2522:2571  payable (sender).call{value: contractBalance}(\"\") */\n      mload(0x40)\n      tag_57\n      swap1\n      tag_41\n      jump\t// in\n    tag_57:\n      0x00\n      mload(0x40)\n      dup1\n      dup4\n      sub\n      dup2\n      dup6\n      dup8\n      gas\n      call\n      swap3\n      pop\n      pop\n      pop\n      returndatasize\n      dup1\n      0x00\n      dup2\n      eq\n      tag_60\n      jumpi\n      mload(0x40)\n      swap2\n      pop\n      and(add(returndatasize, 0x3f), not(0x1f))\n      dup3\n      add\n      0x40\n      mstore\n      returndatasize\n      dup3\n      mstore\n      returndatasize\n      0x00\n      0x20\n      dup5\n      add\n      returndatacopy\n      jump(tag_59)\n    tag_60:\n      0x60\n      swap2\n      pop\n    tag_59:\n      pop\n        /* \"FundMe.sol\":2508:2571  (success, ) = payable (sender).call{value: contractBalance}(\"\") */\n      pop\n      dup1\n      swap2\n      pop\n      pop\n        /* \"FundMe.sol\":2589:2596  success */\n      dup1\n        /* \"FundMe.sol\":2581:2608  require(success, \"Failed!\") */\n      tag_61\n      jumpi\n      mload(0x40)\n      0x08c379a000000000000000000000000000000000000000000000000000000000\n      dup2\n      mstore\n      0x04\n      add\n      tag_62\n      swap1\n      tag_47\n      jump\t// in\n    tag_62:\n      mload(0x40)\n      dup1\n      swap2\n      sub\n      swap1\n      revert\n    tag_61:\n        /* \"FundMe.sol\":2014:2616  {... */\n      pop\n      pop\n      pop\n        /* \"FundMe.sol\":1986:2616  function getFund() external {... */\n      jump\t// out\n        /* \"FundMe.sol\":656:954  function fund() external payable {... */\n    tag_27:\n        /* \"FundMe.sol\":699:710  uint amount */\n      0x00\n        /* \"FundMe.sol\":713:722  msg.value */\n      callvalue\n        /* \"FundMe.sol\":699:722  uint amount = msg.value */\n      swap1\n      pop\n        /* \"FundMe.sol\":732:746  uint usdAmount */\n      0x00\n        /* \"FundMe.sol\":749:771  convertEth2USD(amount) */\n      tag_64\n        /* \"FundMe.sol\":764:770  amount */\n      dup3\n        /* \"FundMe.sol\":749:763  convertEth2USD */\n      tag_50\n        /* \"FundMe.sol\":749:771  convertEth2USD(amount) */\n      jump\t// in\n    tag_64:\n        /* \"FundMe.sol\":732:771  uint usdAmount = convertEth2USD(amount) */\n      swap1\n      pop\n        /* \"FundMe.sol\":802:812  MIN_AMOUNT */\n      sload(0x01)\n        /* \"FundMe.sol\":789:798  usdAmount */\n      dup2\n        /* \"FundMe.sol\":789:812  usdAmount >= MIN_AMOUNT */\n      lt\n      iszero\n        /* \"FundMe.sol\":781:836  require(usdAmount >= MIN_AMOUNT, \"USD Amount too low!\") */\n      tag_65\n      jumpi\n      mload(0x40)\n      0x08c379a000000000000000000000000000000000000000000000000000000000\n      dup2\n      mstore\n      0x04\n      add\n      tag_66\n      swap1\n      tag_67\n      jump\t// in\n    tag_66:\n      mload(0x40)\n      dup1\n      swap2\n      sub\n      swap1\n      revert\n    tag_65:\n        /* \"FundMe.sol\":938:947  msg.value */\n      callvalue\n        /* \"FundMe.sol\":908:922  funderToAmount */\n      0x00\n        /* \"FundMe.sol\":908:934  funderToAmount[msg.sender] */\n      0x00\n        /* \"FundMe.sol\":923:933  msg.sender */\n      caller\n        /* \"FundMe.sol\":908:934  funderToAmount[msg.sender] */\n      0xffffffffffffffffffffffffffffffffffffffff\n      and\n      0xffffffffffffffffffffffffffffffffffffffff\n      and\n      dup2\n      mstore\n      0x20\n      add\n      swap1\n      dup2\n      mstore\n      0x20\n      add\n      0x00\n      keccak256\n      0x00\n        /* \"FundMe.sol\":908:947  funderToAmount[msg.sender] += msg.value */\n      dup3\n      dup3\n      sload\n      tag_68\n      swap2\n      swap1\n      tag_69\n      jump\t// in\n    tag_68:\n      swap3\n      pop\n      pop\n      dup2\n      swap1\n      sstore\n      pop\n        /* \"FundMe.sol\":689:954  {... */\n      pop\n      pop\n        /* \"FundMe.sol\":656:954  function fund() external payable {... */\n      jump\t// out\n        /* \"FundMe.sol\":1008:1360  function getChainlinkDataFeedLatestAnswer() public view returns (int) {... */\n    tag_30:\n        /* \"FundMe.sol\":1073:1076  int */\n      0x00\n        /* \"FundMe.sol\":1164:1174  int answer */\n      0x00\n        /* \"FundMe.sol\":1303:1312  priceFeed */\n      0x02\n      0x00\n      swap1\n      sload\n      swap1\n      0x0100\n      exp\n      swap1\n      div\n      0xffffffffffffffffffffffffffffffffffffffff\n      and\n        /* \"FundMe.sol\":1303:1328  priceFeed.latestRoundData */\n      0xffffffffffffffffffffffffffffffffffffffff\n      and\n      0xfeaf968c\n        /* \"FundMe.sol\":1303:1330  priceFeed.latestRoundData() */\n      mload(0x40)\n      dup2\n      0xffffffff\n      and\n      0xe0\n      shl\n      dup2\n      mstore\n      0x04\n      add\n      0xa0\n      mload(0x40)\n      dup1\n      dup4\n      sub\n      dup2\n      dup7\n      gas\n      staticcall\n      iszero\n      dup1\n      iszero\n      tag_72\n      jumpi\n      returndatacopy(0x00, 0x00, returndatasize)\n      revert(0x00, returndatasize)\n    tag_72:\n      pop\n      pop\n      pop\n      pop\n      mload(0x40)\n      returndatasize\n      not(0x1f)\n      0x1f\n      dup3\n      add\n      and\n      dup3\n      add\n      dup1\n      0x40\n      mstore\n      pop\n      dup2\n      add\n      swap1\n      tag_73\n      swap2\n      swap1\n      tag_74\n      jump\t// in\n    tag_73:\n        /* \"FundMe.sol\":1115:1330  (... */\n      pop\n      pop\n      pop\n      swap2\n      pop\n      pop\n        /* \"FundMe.sol\":1347:1353  answer */\n      dup1\n        /* \"FundMe.sol\":1340:1353  return answer */\n      swap2\n      pop\n      pop\n        /* \"FundMe.sol\":1008:1360  function getChainlinkDataFeedLatestAnswer() public view returns (int) {... */\n      swap1\n      jump\t// out\n        /* \"FundMe.sol\":1366:1898  function convertEth2USD (uint256 ethAmount) internal view returns ( uint256) {... */\n    tag_50:\n        /* \"FundMe.sol\":1434:1441  uint256 */\n      0x00\n        /* \"FundMe.sol\":1453:1466  uint256 price */\n      0x00\n        /* \"FundMe.sol\":1477:1511  getChainlinkDataFeedLatestAnswer() */\n      tag_76\n        /* \"FundMe.sol\":1477:1509  getChainlinkDataFeedLatestAnswer */\n      tag_30\n        /* \"FundMe.sol\":1477:1511  getChainlinkDataFeedLatestAnswer() */\n      jump\t// in\n    tag_76:\n        /* \"FundMe.sol\":1453:1512  uint256 price = uint256(getChainlinkDataFeedLatestAnswer()) */\n      swap1\n      pop\n        /* \"FundMe.sol\":1883:1890  10 ** 8 */\n      0x05f5e100\n        /* \"FundMe.sol\":1874:1879  price */\n      dup2\n        /* \"FundMe.sol\":1862:1871  ethAmount */\n      dup5\n        /* \"FundMe.sol\":1862:1879  ethAmount * price */\n      tag_77\n      swap2\n      swap1\n      tag_78\n      jump\t// in\n    tag_77:\n        /* \"FundMe.sol\":1862:1891  ethAmount * price / (10 ** 8) */\n      tag_79\n      swap2\n      swap1\n      tag_80\n      jump\t// in\n    tag_79:\n        /* \"FundMe.sol\":1855:1891  return ethAmount * price / (10 ** 8) */\n      swap2\n      pop\n      pop\n        /* \"FundMe.sol\":1366:1898  function convertEth2USD (uint256 ethAmount) internal view returns ( uint256) {... */\n      swap2\n      swap1\n      pop\n      jump\t// out\n        /* \"#utility.yul\":88:205   */\n    tag_82:\n        /* \"#utility.yul\":197:198   */\n      0x00\n        /* \"#utility.yul\":194:195   */\n      0x00\n        /* \"#utility.yul\":187:199   */\n      revert\n        /* \"#utility.yul\":334:460   */\n    tag_84:\n        /* \"#utility.yul\":371:378   */\n      0x00\n        /* \"#utility.yul\":411:453   */\n      0xffffffffffffffffffffffffffffffffffffffff\n        /* \"#utility.yul\":404:409   */\n      dup3\n        /* \"#utility.yul\":400:454   */\n      and\n        /* \"#utility.yul\":389:454   */\n      swap1\n      pop\n        /* \"#utility.yul\":334:460   */\n      swap2\n      swap1\n      pop\n      jump\t// out\n        /* \"#utility.yul\":466:562   */\n    tag_85:\n        /* \"#utility.yul\":503:510   */\n      0x00\n        /* \"#utility.yul\":532:556   */\n      tag_124\n        /* \"#utility.yul\":550:555   */\n      dup3\n        /* \"#utility.yul\":532:556   */\n      tag_84\n      jump\t// in\n    tag_124:\n        /* \"#utility.yul\":521:556   */\n      swap1\n      pop\n        /* \"#utility.yul\":466:562   */\n      swap2\n      swap1\n      pop\n      jump\t// out\n        /* \"#utility.yul\":568:690   */\n    tag_86:\n        /* \"#utility.yul\":641:665   */\n      tag_126\n        /* \"#utility.yul\":659:664   */\n      dup2\n        /* \"#utility.yul\":641:665   */\n      tag_85\n      jump\t// in\n    tag_126:\n        /* \"#utility.yul\":634:639   */\n      dup2\n        /* \"#utility.yul\":631:666   */\n      eq\n        /* \"#utility.yul\":621:684   */\n      tag_127\n      jumpi\n        /* \"#utility.yul\":680:681   */\n      0x00\n        /* \"#utility.yul\":677:678   */\n      0x00\n        /* \"#utility.yul\":670:682   */\n      revert\n        /* \"#utility.yul\":621:684   */\n    tag_127:\n        /* \"#utility.yul\":568:690   */\n      pop\n      jump\t// out\n        /* \"#utility.yul\":696:835   */\n    tag_87:\n        /* \"#utility.yul\":742:747   */\n      0x00\n        /* \"#utility.yul\":780:786   */\n      dup2\n        /* \"#utility.yul\":767:787   */\n      calldataload\n        /* \"#utility.yul\":758:787   */\n      swap1\n      pop\n        /* \"#utility.yul\":796:829   */\n      tag_129\n        /* \"#utility.yul\":823:828   */\n      dup2\n        /* \"#utility.yul\":796:829   */\n      tag_86\n      jump\t// in\n    tag_129:\n        /* \"#utility.yul\":696:835   */\n      swap3\n      swap2\n      pop\n      pop\n      jump\t// out\n        /* \"#utility.yul\":841:1170   */\n    tag_11:\n        /* \"#utility.yul\":900:906   */\n      0x00\n        /* \"#utility.yul\":949:951   */\n      0x20\n        /* \"#utility.yul\":937:946   */\n      dup3\n        /* \"#utility.yul\":928:935   */\n      dup5\n        /* \"#utility.yul\":924:947   */\n      sub\n        /* \"#utility.yul\":920:952   */\n      slt\n        /* \"#utility.yul\":917:1036   */\n      iszero\n      tag_131\n      jumpi\n        /* \"#utility.yul\":955:1034   */\n      tag_132\n      tag_82\n      jump\t// in\n    tag_132:\n        /* \"#utility.yul\":917:1036   */\n    tag_131:\n        /* \"#utility.yul\":1075:1076   */\n      0x00\n        /* \"#utility.yul\":1100:1153   */\n      tag_133\n        /* \"#utility.yul\":1145:1152   */\n      dup5\n        /* \"#utility.yul\":1136:1142   */\n      dup3\n        /* \"#utility.yul\":1125:1134   */\n      dup6\n        /* \"#utility.yul\":1121:1143   */\n      add\n        /* \"#utility.yul\":1100:1153   */\n      tag_87\n      jump\t// in\n    tag_133:\n        /* \"#utility.yul\":1090:1153   */\n      swap2\n      pop\n        /* \"#utility.yul\":1046:1163   */\n      pop\n        /* \"#utility.yul\":841:1170   */\n      swap3\n      swap2\n      pop\n      pop\n      jump\t// out\n        /* \"#utility.yul\":1176:1253   */\n    tag_88:\n        /* \"#utility.yul\":1213:1220   */\n      0x00\n        /* \"#utility.yul\":1242:1247   */\n      dup2\n        /* \"#utility.yul\":1231:1247   */\n      swap1\n      pop\n        /* \"#utility.yul\":1176:1253   */\n      swap2\n      swap1\n      pop\n      jump\t// out\n        /* \"#utility.yul\":1259:1377   */\n    tag_89:\n        /* \"#utility.yul\":1346:1370   */\n      tag_136\n        /* \"#utility.yul\":1364:1369   */\n      dup2\n        /* \"#utility.yul\":1346:1370   */\n      tag_88\n      jump\t// in\n    tag_136:\n        /* \"#utility.yul\":1341:1344   */\n      dup3\n        /* \"#utility.yul\":1334:1371   */\n      mstore\n        /* \"#utility.yul\":1259:1377   */\n      pop\n      pop\n      jump\t// out\n        /* \"#utility.yul\":1383:1605   */\n    tag_14:\n        /* \"#utility.yul\":1476:1480   */\n      0x00\n        /* \"#utility.yul\":1514:1516   */\n      0x20\n        /* \"#utility.yul\":1503:1512   */\n      dup3\n        /* \"#utility.yul\":1499:1517   */\n      add\n        /* \"#utility.yul\":1491:1517   */\n      swap1\n      pop\n        /* \"#utility.yul\":1527:1598   */\n      tag_138\n        /* \"#utility.yul\":1595:1596   */\n      0x00\n        /* \"#utility.yul\":1584:1593   */\n      dup4\n        /* \"#utility.yul\":1580:1597   */\n      add\n        /* \"#utility.yul\":1571:1577   */\n      dup5\n        /* \"#utility.yul\":1527:1598   */\n      tag_89\n      jump\t// in\n    tag_138:\n        /* \"#utility.yul\":1383:1605   */\n      swap3\n      swap2\n      pop\n      pop\n      jump\t// out\n        /* \"#utility.yul\":1611:1729   */\n    tag_90:\n        /* \"#utility.yul\":1698:1722   */\n      tag_140\n        /* \"#utility.yul\":1716:1721   */\n      dup2\n        /* \"#utility.yul\":1698:1722   */\n      tag_85\n      jump\t// in\n    tag_140:\n        /* \"#utility.yul\":1693:1696   */\n      dup3\n        /* \"#utility.yul\":1686:1723   */\n      mstore\n        /* \"#utility.yul\":1611:1729   */\n      pop\n      pop\n      jump\t// out\n        /* \"#utility.yul\":1735:1957   */\n    tag_22:\n        /* \"#utility.yul\":1828:1832   */\n      0x00\n        /* \"#utility.yul\":1866:1868   */\n      0x20\n        /* \"#utility.yul\":1855:1864   */\n      dup3\n        /* \"#utility.yul\":1851:1869   */\n      add\n        /* \"#utility.yul\":1843:1869   */\n      swap1\n      pop\n        /* \"#utility.yul\":1879:1950   */\n      tag_142\n        /* \"#utility.yul\":1947:1948   */\n      0x00\n        /* \"#utility.yul\":1936:1945   */\n      dup4\n        /* \"#utility.yul\":1932:1949   */\n      add\n        /* \"#utility.yul\":1923:1929   */\n      dup5\n        /* \"#utility.yul\":1879:1950   */\n      tag_90\n      jump\t// in\n    tag_142:\n        /* \"#utility.yul\":1735:1957   */\n      swap3\n      swap2\n      pop\n      pop\n      jump\t// out\n        /* \"#utility.yul\":1963:2039   */\n    tag_91:\n        /* \"#utility.yul\":1999:2006   */\n      0x00\n        /* \"#utility.yul\":2028:2033   */\n      dup2\n        /* \"#utility.yul\":2017:2033   */\n      swap1\n      pop\n        /* \"#utility.yul\":1963:2039   */\n      swap2\n      swap1\n      pop\n      jump\t// out\n        /* \"#utility.yul\":2045:2160   */\n    tag_92:\n        /* \"#utility.yul\":2130:2153   */\n      tag_145\n        /* \"#utility.yul\":2147:2152   */\n      dup2\n        /* \"#utility.yul\":2130:2153   */\n      tag_91\n      jump\t// in\n    tag_145:\n        /* \"#utility.yul\":2125:2128   */\n      dup3\n        /* \"#utility.yul\":2118:2154   */\n      mstore\n        /* \"#utility.yul\":2045:2160   */\n      pop\n      pop\n      jump\t// out\n        /* \"#utility.yul\":2166:2384   */\n    tag_32:\n        /* \"#utility.yul\":2257:2261   */\n      0x00\n        /* \"#utility.yul\":2295:2297   */\n      0x20\n        /* \"#utility.yul\":2284:2293   */\n      dup3\n        /* \"#utility.yul\":2280:2298   */\n      add\n        /* \"#utility.yul\":2272:2298   */\n      swap1\n      pop\n        /* \"#utility.yul\":2308:2377   */\n      tag_147\n        /* \"#utility.yul\":2374:2375   */\n      0x00\n        /* \"#utility.yul\":2363:2372   */\n      dup4\n        /* \"#utility.yul\":2359:2376   */\n      add\n        /* \"#utility.yul\":2350:2356   */\n      dup5\n        /* \"#utility.yul\":2308:2377   */\n      tag_92\n      jump\t// in\n    tag_147:\n        /* \"#utility.yul\":2166:2384   */\n      swap3\n      swap2\n      pop\n      pop\n      jump\t// out\n        /* \"#utility.yul\":2390:2559   */\n    tag_93:\n        /* \"#utility.yul\":2474:2485   */\n      0x00\n        /* \"#utility.yul\":2508:2514   */\n      dup3\n        /* \"#utility.yul\":2503:2506   */\n      dup3\n        /* \"#utility.yul\":2496:2515   */\n      mstore\n        /* \"#utility.yul\":2548:2552   */\n      0x20\n        /* \"#utility.yul\":2543:2546   */\n      dup3\n        /* \"#utility.yul\":2539:2553   */\n      add\n        /* \"#utility.yul\":2524:2553   */\n      swap1\n      pop\n        /* \"#utility.yul\":2390:2559   */\n      swap3\n      swap2\n      pop\n      pop\n      jump\t// out\n        /* \"#utility.yul\":2565:2733   */\n    tag_94:\n        /* \"#utility.yul\":2705:2725   */\n      0x5461726765742069732072656163686564210000000000000000000000000000\n        /* \"#utility.yul\":2701:2702   */\n      0x00\n        /* \"#utility.yul\":2693:2699   */\n      dup3\n        /* \"#utility.yul\":2689:2703   */\n      add\n        /* \"#utility.yul\":2682:2726   */\n      mstore\n        /* \"#utility.yul\":2565:2733   */\n      pop\n      jump\t// out\n        /* \"#utility.yul\":2739:3105   */\n    tag_95:\n        /* \"#utility.yul\":2881:2884   */\n      0x00\n        /* \"#utility.yul\":2902:2969   */\n      tag_151\n        /* \"#utility.yul\":2966:2968   */\n      0x12\n        /* \"#utility.yul\":2961:2964   */\n      dup4\n        /* \"#utility.yul\":2902:2969   */\n      tag_93\n      jump\t// in\n    tag_151:\n        /* \"#utility.yul\":2895:2969   */\n      swap2\n      pop\n        /* \"#utility.yul\":2978:3071   */\n      tag_152\n        /* \"#utility.yul\":3067:3070   */\n      dup3\n        /* \"#utility.yul\":2978:3071   */\n      tag_94\n      jump\t// in\n    tag_152:\n        /* \"#utility.yul\":3096:3098   */\n      0x20\n        /* \"#utility.yul\":3091:3094   */\n      dup3\n        /* \"#utility.yul\":3087:3099   */\n      add\n        /* \"#utility.yul\":3080:3099   */\n      swap1\n      pop\n        /* \"#utility.yul\":2739:3105   */\n      swap2\n      swap1\n      pop\n      jump\t// out\n        /* \"#utility.yul\":3111:3530   */\n    tag_36:\n        /* \"#utility.yul\":3277:3281   */\n      0x00\n        /* \"#utility.yul\":3315:3317   */\n      0x20\n        /* \"#utility.yul\":3304:3313   */\n      dup3\n        /* \"#utility.yul\":3300:3318   */\n      add\n        /* \"#utility.yul\":3292:3318   */\n      swap1\n      pop\n        /* \"#utility.yul\":3364:3373   */\n      dup2\n        /* \"#utility.yul\":3358:3362   */\n      dup2\n        /* \"#utility.yul\":3354:3374   */\n      sub\n        /* \"#utility.yul\":3350:3351   */\n      0x00\n        /* \"#utility.yul\":3339:3348   */\n      dup4\n        /* \"#utility.yul\":3335:3352   */\n      add\n        /* \"#utility.yul\":3328:3375   */\n      mstore\n        /* \"#utility.yul\":3392:3523   */\n      tag_154\n        /* \"#utility.yul\":3518:3522   */\n      dup2\n        /* \"#utility.yul\":3392:3523   */\n      tag_95\n      jump\t// in\n    tag_154:\n        /* \"#utility.yul\":3384:3523   */\n      swap1\n      pop\n        /* \"#utility.yul\":3111:3530   */\n      swap2\n      swap1\n      pop\n      jump\t// out\n        /* \"#utility.yul\":3536:3760   */\n    tag_96:\n        /* \"#utility.yul\":3676:3710   */\n      0x796f752068617665206e6f2062616c616e636520696e207468697320636f6e74\n        /* \"#utility.yul\":3672:3673   */\n      0x00\n        /* \"#utility.yul\":3664:3670   */\n      dup3\n        /* \"#utility.yul\":3660:3674   */\n      add\n        /* \"#utility.yul\":3653:3711   */\n      mstore\n        /* \"#utility.yul\":3745:3752   */\n      0x7261637421000000000000000000000000000000000000000000000000000000\n        /* \"#utility.yul\":3740:3742   */\n      0x20\n        /* \"#utility.yul\":3732:3738   */\n      dup3\n        /* \"#utility.yul\":3728:3743   */\n      add\n        /* \"#utility.yul\":3721:3753   */\n      mstore\n        /* \"#utility.yul\":3536:3760   */\n      pop\n      jump\t// out\n        /* \"#utility.yul\":3766:4132   */\n    tag_97:\n        /* \"#utility.yul\":3908:3911   */\n      0x00\n        /* \"#utility.yul\":3929:3996   */\n      tag_157\n        /* \"#utility.yul\":3993:3995   */\n      0x25\n        /* \"#utility.yul\":3988:3991   */\n      dup4\n        /* \"#utility.yul\":3929:3996   */\n      tag_93\n      jump\t// in\n    tag_157:\n        /* \"#utility.yul\":3922:3996   */\n      swap2\n      pop\n        /* \"#utility.yul\":4005:4098   */\n      tag_158\n        /* \"#utility.yul\":4094:4097   */\n      dup3\n        /* \"#utility.yul\":4005:4098   */\n      tag_96\n      jump\t// in\n    tag_158:\n        /* \"#utility.yul\":4123:4125   */\n      0x40\n        /* \"#utility.yul\":4118:4121   */\n      dup3\n        /* \"#utility.yul\":4114:4126   */\n      add\n        /* \"#utility.yul\":4107:4126   */\n      swap1\n      pop\n        /* \"#utility.yul\":3766:4132   */\n      swap2\n      swap1\n      pop\n      jump\t// out\n        /* \"#utility.yul\":4138:4557   */\n    tag_39:\n        /* \"#utility.yul\":4304:4308   */\n      0x00\n        /* \"#utility.yul\":4342:4344   */\n      0x20\n        /* \"#utility.yul\":4331:4340   */\n      dup3\n        /* \"#utility.yul\":4327:4345   */\n      add\n        /* \"#utility.yul\":4319:4345   */\n      swap1\n      pop\n        /* \"#utility.yul\":4391:4400   */\n      dup2\n        /* \"#utility.yul\":4385:4389   */\n      dup2\n        /* \"#utility.yul\":4381:4401   */\n      sub\n        /* \"#utility.yul\":4377:4378   */\n      0x00\n        /* \"#utility.yul\":4366:4375   */\n      dup4\n        /* \"#utility.yul\":4362:4379   */\n      add\n        /* \"#utility.yul\":4355:4402   */\n      mstore\n        /* \"#utility.yul\":4419:4550   */\n      tag_160\n        /* \"#utility.yul\":4545:4549   */\n      dup2\n        /* \"#utility.yul\":4419:4550   */\n      tag_97\n      jump\t// in\n    tag_160:\n        /* \"#utility.yul\":4411:4550   */\n      swap1\n      pop\n        /* \"#utility.yul\":4138:4557   */\n      swap2\n      swap1\n      pop\n      jump\t// out\n        /* \"#utility.yul\":4563:4710   */\n    tag_98:\n        /* \"#utility.yul\":4664:4675   */\n      0x00\n        /* \"#utility.yul\":4701:4704   */\n      dup2\n        /* \"#utility.yul\":4686:4704   */\n      swap1\n      pop\n        /* \"#utility.yul\":4563:4710   */\n      swap3\n      swap2\n      pop\n      pop\n      jump\t// out\n        /* \"#utility.yul\":4716:4830   */\n    tag_99:\n      pop\n      jump\t// out\n        /* \"#utility.yul\":4836:5234   */\n    tag_100:\n        /* \"#utility.yul\":4995:4998   */\n      0x00\n        /* \"#utility.yul\":5016:5099   */\n      tag_164\n        /* \"#utility.yul\":5097:5098   */\n      0x00\n        /* \"#utility.yul\":5092:5095   */\n      dup4\n        /* \"#utility.yul\":5016:5099   */\n      tag_98\n      jump\t// in\n    tag_164:\n        /* \"#utility.yul\":5009:5099   */\n      swap2\n      pop\n        /* \"#utility.yul\":5108:5201   */\n      tag_165\n        /* \"#utility.yul\":5197:5200   */\n      dup3\n        /* \"#utility.yul\":5108:5201   */\n      tag_99\n      jump\t// in\n    tag_165:\n        /* \"#utility.yul\":5226:5227   */\n      0x00\n        /* \"#utility.yul\":5221:5224   */\n      dup3\n        /* \"#utility.yul\":5217:5228   */\n      add\n        /* \"#utility.yul\":5210:5228   */\n      swap1\n      pop\n        /* \"#utility.yul\":4836:5234   */\n      swap2\n      swap1\n      pop\n      jump\t// out\n        /* \"#utility.yul\":5240:5619   */\n    tag_41:\n        /* \"#utility.yul\":5424:5427   */\n      0x00\n        /* \"#utility.yul\":5446:5593   */\n      tag_167\n        /* \"#utility.yul\":5589:5592   */\n      dup3\n        /* \"#utility.yul\":5446:5593   */\n      tag_100\n      jump\t// in\n    tag_167:\n        /* \"#utility.yul\":5439:5593   */\n      swap2\n      pop\n        /* \"#utility.yul\":5610:5613   */\n      dup2\n        /* \"#utility.yul\":5603:5613   */\n      swap1\n      pop\n        /* \"#utility.yul\":5240:5619   */\n      swap2\n      swap1\n      pop\n      jump\t// out\n        /* \"#utility.yul\":5625:5782   */\n    tag_101:\n        /* \"#utility.yul\":5765:5774   */\n      0x4661696c65642100000000000000000000000000000000000000000000000000\n        /* \"#utility.yul\":5761:5762   */\n      0x00\n        /* \"#utility.yul\":5753:5759   */\n      dup3\n        /* \"#utility.yul\":5749:5763   */\n      add\n        /* \"#utility.yul\":5742:5775   */\n      mstore\n        /* \"#utility.yul\":5625:5782   */\n      pop\n      jump\t// out\n        /* \"#utility.yul\":5788:6153   */\n    tag_102:\n        /* \"#utility.yul\":5930:5933   */\n      0x00\n        /* \"#utility.yul\":5951:6017   */\n      tag_170\n        /* \"#utility.yul\":6015:6016   */\n      0x07\n        /* \"#utility.yul\":6010:6013   */\n      dup4\n        /* \"#utility.yul\":5951:6017   */\n      tag_93\n      jump\t// in\n    tag_170:\n        /* \"#utility.yul\":5944:6017   */\n      swap2\n      pop\n        /* \"#utility.yul\":6026:6119   */\n      tag_171\n        /* \"#utility.yul\":6115:6118   */\n      dup3\n        /* \"#utility.yul\":6026:6119   */\n      tag_101\n      jump\t// in\n    tag_171:\n        /* \"#utility.yul\":6144:6146   */\n      0x20\n        /* \"#utility.yul\":6139:6142   */\n      dup3\n        /* \"#utility.yul\":6135:6147   */\n      add\n        /* \"#utility.yul\":6128:6147   */\n      swap1\n      pop\n        /* \"#utility.yul\":5788:6153   */\n      swap2\n      swap1\n      pop\n      jump\t// out\n        /* \"#utility.yul\":6159:6578   */\n    tag_47:\n        /* \"#utility.yul\":6325:6329   */\n      0x00\n        /* \"#utility.yul\":6363:6365   */\n      0x20\n        /* \"#utility.yul\":6352:6361   */\n      dup3\n        /* \"#utility.yul\":6348:6366   */\n      add\n        /* \"#utility.yul\":6340:6366   */\n      swap1\n      pop\n        /* \"#utility.yul\":6412:6421   */\n      dup2\n        /* \"#utility.yul\":6406:6410   */\n      dup2\n        /* \"#utility.yul\":6402:6422   */\n      sub\n        /* \"#utility.yul\":6398:6399   */\n      0x00\n        /* \"#utility.yul\":6387:6396   */\n      dup4\n        /* \"#utility.yul\":6383:6400   */\n      add\n        /* \"#utility.yul\":6376:6423   */\n      mstore\n        /* \"#utility.yul\":6440:6571   */\n      tag_173\n        /* \"#utility.yul\":6566:6570   */\n      dup2\n        /* \"#utility.yul\":6440:6571   */\n      tag_102\n      jump\t// in\n    tag_173:\n        /* \"#utility.yul\":6432:6571   */\n      swap1\n      pop\n        /* \"#utility.yul\":6159:6578   */\n      swap2\n      swap1\n      pop\n      jump\t// out\n        /* \"#utility.yul\":6584:6758   */\n    tag_103:\n        /* \"#utility.yul\":6724:6750   */\n      0x4e6f742052656163682054617267657420416d6f756e74210000000000000000\n        /* \"#utility.yul\":6720:6721   */\n      0x00\n        /* \"#utility.yul\":6712:6718   */\n      dup3\n        /* \"#utility.yul\":6708:6722   */\n      add\n        /* \"#utility.yul\":6701:6751   */\n      mstore\n        /* \"#utility.yul\":6584:6758   */\n      pop\n      jump\t// out\n        /* \"#utility.yul\":6764:7130   */\n    tag_104:\n        /* \"#utility.yul\":6906:6909   */\n      0x00\n        /* \"#utility.yul\":6927:6994   */\n      tag_176\n        /* \"#utility.yul\":6991:6993   */\n      0x18\n        /* \"#utility.yul\":6986:6989   */\n      dup4\n        /* \"#utility.yul\":6927:6994   */\n      tag_93\n      jump\t// in\n    tag_176:\n        /* \"#utility.yul\":6920:6994   */\n      swap2\n      pop\n        /* \"#utility.yul\":7003:7096   */\n      tag_177\n        /* \"#utility.yul\":7092:7095   */\n      dup3\n        /* \"#utility.yul\":7003:7096   */\n      tag_103\n      jump\t// in\n    tag_177:\n        /* \"#utility.yul\":7121:7123   */\n      0x20\n        /* \"#utility.yul\":7116:7119   */\n      dup3\n        /* \"#utility.yul\":7112:7124   */\n      add\n        /* \"#utility.yul\":7105:7124   */\n      swap1\n      pop\n        /* \"#utility.yul\":6764:7130   */\n      swap2\n      swap1\n      pop\n      jump\t// out\n        /* \"#utility.yul\":7136:7555   */\n    tag_53:\n        /* \"#utility.yul\":7302:7306   */\n      0x00\n        /* \"#utility.yul\":7340:7342   */\n      0x20\n        /* \"#utility.yul\":7329:7338   */\n      dup3\n        /* \"#utility.yul\":7325:7343   */\n      add\n        /* \"#utility.yul\":7317:7343   */\n      swap1\n      pop\n        /* \"#utility.yul\":7389:7398   */\n      dup2\n        /* \"#utility.yul\":7383:7387   */\n      dup2\n        /* \"#utility.yul\":7379:7399   */\n      sub\n        /* \"#utility.yul\":7375:7376   */\n      0x00\n        /* \"#utility.yul\":7364:7373   */\n      dup4\n        /* \"#utility.yul\":7360:7377   */\n      add\n        /* \"#utility.yul\":7353:7400   */\n      mstore\n        /* \"#utility.yul\":7417:7548   */\n      tag_179\n        /* \"#utility.yul\":7543:7547   */\n      dup2\n        /* \"#utility.yul\":7417:7548   */\n      tag_104\n      jump\t// in\n    tag_179:\n        /* \"#utility.yul\":7409:7548   */\n      swap1\n      pop\n        /* \"#utility.yul\":7136:7555   */\n      swap2\n      swap1\n      pop\n      jump\t// out\n        /* \"#utility.yul\":7561:7733   */\n    tag_105:\n        /* \"#utility.yul\":7701:7725   */\n      0x796f7520617265206e6f7420746865206f776e65722100000000000000000000\n        /* \"#utility.yul\":7697:7698   */\n      0x00\n        /* \"#utility.yul\":7689:7695   */\n      dup3\n        /* \"#utility.yul\":7685:7699   */\n      add\n        /* \"#utility.yul\":7678:7726   */\n      mstore\n        /* \"#utility.yul\":7561:7733   */\n      pop\n      jump\t// out\n        /* \"#utility.yul\":7739:8105   */\n    tag_106:\n        /* \"#utility.yul\":7881:7884   */\n      0x00\n        /* \"#utility.yul\":7902:7969   */\n      tag_182\n        /* \"#utility.yul\":7966:7968   */\n      0x16\n        /* \"#utility.yul\":7961:7964   */\n      dup4\n        /* \"#utility.yul\":7902:7969   */\n      tag_93\n      jump\t// in\n    tag_182:\n        /* \"#utility.yul\":7895:7969   */\n      swap2\n      pop\n        /* \"#utility.yul\":7978:8071   */\n      tag_183\n        /* \"#utility.yul\":8067:8070   */\n      dup3\n        /* \"#utility.yul\":7978:8071   */\n      tag_105\n      jump\t// in\n    tag_183:\n        /* \"#utility.yul\":8096:8098   */\n      0x20\n        /* \"#utility.yul\":8091:8094   */\n      dup3\n        /* \"#utility.yul\":8087:8099   */\n      add\n        /* \"#utility.yul\":8080:8099   */\n      swap1\n      pop\n        /* \"#utility.yul\":7739:8105   */\n      swap2\n      swap1\n      pop\n      jump\t// out\n        /* \"#utility.yul\":8111:8530   */\n    tag_56:\n        /* \"#utility.yul\":8277:8281   */\n      0x00\n        /* \"#utility.yul\":8315:8317   */\n      0x20\n        /* \"#utility.yul\":8304:8313   */\n      dup3\n        /* \"#utility.yul\":8300:8318   */\n      add\n        /* \"#utility.yul\":8292:8318   */\n      swap1\n      pop\n        /* \"#utility.yul\":8364:8373   */\n      dup2\n        /* \"#utility.yul\":8358:8362   */\n      dup2\n        /* \"#utility.yul\":8354:8374   */\n      sub\n        /* \"#utility.yul\":8350:8351   */\n      0x00\n        /* \"#utility.yul\":8339:8348   */\n      dup4\n        /* \"#utility.yul\":8335:8352   */\n      add\n        /* \"#utility.yul\":8328:8375   */\n      mstore\n        /* \"#utility.yul\":8392:8523   */\n      tag_185\n        /* \"#utility.yul\":8518:8522   */\n      dup2\n        /* \"#utility.yul\":8392:8523   */\n      tag_106\n      jump\t// in\n    tag_185:\n        /* \"#utility.yul\":8384:8523   */\n      swap1\n      pop\n        /* \"#utility.yul\":8111:8530   */\n      swap2\n      swap1\n      pop\n      jump\t// out\n        /* \"#utility.yul\":8536:8705   */\n    tag_107:\n        /* \"#utility.yul\":8676:8697   */\n      0x55534420416d6f756e7420746f6f206c6f772100000000000000000000000000\n        /* \"#utility.yul\":8672:8673   */\n      0x00\n        /* \"#utility.yul\":8664:8670   */\n      dup3\n        /* \"#utility.yul\":8660:8674   */\n      add\n        /* \"#utility.yul\":8653:8698   */\n      mstore\n        /* \"#utility.yul\":8536:8705   */\n      pop\n      jump\t// out\n        /* \"#utility.yul\":8711:9077   */\n    tag_108:\n        /* \"#utility.yul\":8853:8856   */\n      0x00\n        /* \"#utility.yul\":8874:8941   */\n      tag_188\n        /* \"#utility.yul\":8938:8940   */\n      0x13\n        /* \"#utility.yul\":8933:8936   */\n      dup4\n        /* \"#utility.yul\":8874:8941   */\n      tag_93\n      jump\t// in\n    tag_188:\n        /* \"#utility.yul\":8867:8941   */\n      swap2\n      pop\n        /* \"#utility.yul\":8950:9043   */\n      tag_189\n        /* \"#utility.yul\":9039:9042   */\n      dup3\n        /* \"#utility.yul\":8950:9043   */\n      tag_107\n      jump\t// in\n    tag_189:\n        /* \"#utility.yul\":9068:9070   */\n      0x20\n        /* \"#utility.yul\":9063:9066   */\n      dup3\n        /* \"#utility.yul\":9059:9071   */\n      add\n        /* \"#utility.yul\":9052:9071   */\n      swap1\n      pop\n        /* \"#utility.yul\":8711:9077   */\n      swap2\n      swap1\n      pop\n      jump\t// out\n        /* \"#utility.yul\":9083:9502   */\n    tag_67:\n        /* \"#utility.yul\":9249:9253   */\n      0x00\n        /* \"#utility.yul\":9287:9289   */\n      0x20\n        /* \"#utility.yul\":9276:9285   */\n      dup3\n        /* \"#utility.yul\":9272:9290   */\n      add\n        /* \"#utility.yul\":9264:9290   */\n      swap1\n      pop\n        /* \"#utility.yul\":9336:9345   */\n      dup2\n        /* \"#utility.yul\":9330:9334   */\n      dup2\n        /* \"#utility.yul\":9326:9346   */\n      sub\n        /* \"#utility.yul\":9322:9323   */\n      0x00\n        /* \"#utility.yul\":9311:9320   */\n      dup4\n        /* \"#utility.yul\":9307:9324   */\n      add\n        /* \"#utility.yul\":9300:9347   */\n      mstore\n        /* \"#utility.yul\":9364:9495   */\n      tag_191\n        /* \"#utility.yul\":9490:9494   */\n      dup2\n        /* \"#utility.yul\":9364:9495   */\n      tag_108\n      jump\t// in\n    tag_191:\n        /* \"#utility.yul\":9356:9495   */\n      swap1\n      pop\n        /* \"#utility.yul\":9083:9502   */\n      swap2\n      swap1\n      pop\n      jump\t// out\n        /* \"#utility.yul\":9508:9688   */\n    tag_109:\n        /* \"#utility.yul\":9556:9633   */\n      0x4e487b7100000000000000000000000000000000000000000000000000000000\n        /* \"#utility.yul\":9553:9554   */\n      0x00\n        /* \"#utility.yul\":9546:9634   */\n      mstore\n        /* \"#utility.yul\":9653:9657   */\n      0x11\n        /* \"#utility.yul\":9650:9651   */\n      0x04\n        /* \"#utility.yul\":9643:9658   */\n      mstore\n        /* \"#utility.yul\":9677:9681   */\n      0x24\n        /* \"#utility.yul\":9674:9675   */\n      0x00\n        /* \"#utility.yul\":9667:9682   */\n      revert\n        /* \"#utility.yul\":9694:9885   */\n    tag_69:\n        /* \"#utility.yul\":9734:9737   */\n      0x00\n        /* \"#utility.yul\":9753:9773   */\n      tag_194\n        /* \"#utility.yul\":9771:9772   */\n      dup3\n        /* \"#utility.yul\":9753:9773   */\n      tag_88\n      jump\t// in\n    tag_194:\n        /* \"#utility.yul\":9748:9773   */\n      swap2\n      pop\n        /* \"#utility.yul\":9787:9807   */\n      tag_195\n        /* \"#utility.yul\":9805:9806   */\n      dup4\n        /* \"#utility.yul\":9787:9807   */\n      tag_88\n      jump\t// in\n    tag_195:\n        /* \"#utility.yul\":9782:9807   */\n      swap3\n      pop\n        /* \"#utility.yul\":9830:9831   */\n      dup3\n        /* \"#utility.yul\":9827:9828   */\n      dup3\n        /* \"#utility.yul\":9823:9832   */\n      add\n        /* \"#utility.yul\":9816:9832   */\n      swap1\n      pop\n        /* \"#utility.yul\":9851:9854   */\n      dup1\n        /* \"#utility.yul\":9848:9849   */\n      dup3\n        /* \"#utility.yul\":9845:9855   */\n      gt\n        /* \"#utility.yul\":9842:9878   */\n      iszero\n      tag_196\n      jumpi\n        /* \"#utility.yul\":9858:9876   */\n      tag_197\n      tag_109\n      jump\t// in\n    tag_197:\n        /* \"#utility.yul\":9842:9878   */\n    tag_196:\n        /* \"#utility.yul\":9694:9885   */\n      swap3\n      swap2\n      pop\n      pop\n      jump\t// out\n        /* \"#utility.yul\":9891:9996   */\n    tag_110:\n        /* \"#utility.yul\":9927:9934   */\n      0x00\n        /* \"#utility.yul\":9967:9989   */\n      0xffffffffffffffffffff\n        /* \"#utility.yul\":9960:9965   */\n      dup3\n        /* \"#utility.yul\":9956:9990   */\n      and\n        /* \"#utility.yul\":9945:9990   */\n      swap1\n      pop\n        /* \"#utility.yul\":9891:9996   */\n      swap2\n      swap1\n      pop\n      jump\t// out\n        /* \"#utility.yul\":10002:10122   */\n    tag_111:\n        /* \"#utility.yul\":10074:10097   */\n      tag_200\n        /* \"#utility.yul\":10091:10096   */\n      dup2\n        /* \"#utility.yul\":10074:10097   */\n      tag_110\n      jump\t// in\n    tag_200:\n        /* \"#utility.yul\":10067:10072   */\n      dup2\n        /* \"#utility.yul\":10064:10098   */\n      eq\n        /* \"#utility.yul\":10054:10116   */\n      tag_201\n      jumpi\n        /* \"#utility.yul\":10112:10113   */\n      0x00\n        /* \"#utility.yul\":10109:10110   */\n      0x00\n        /* \"#utility.yul\":10102:10114   */\n      revert\n        /* \"#utility.yul\":10054:10116   */\n    tag_201:\n        /* \"#utility.yul\":10002:10122   */\n      pop\n      jump\t// out\n        /* \"#utility.yul\":10128:10269   */\n    tag_112:\n        /* \"#utility.yul\":10184:10189   */\n      0x00\n        /* \"#utility.yul\":10215:10221   */\n      dup2\n        /* \"#utility.yul\":10209:10222   */\n      mload\n        /* \"#utility.yul\":10200:10222   */\n      swap1\n      pop\n        /* \"#utility.yul\":10231:10263   */\n      tag_203\n        /* \"#utility.yul\":10257:10262   */\n      dup2\n        /* \"#utility.yul\":10231:10263   */\n      tag_111\n      jump\t// in\n    tag_203:\n        /* \"#utility.yul\":10128:10269   */\n      swap3\n      swap2\n      pop\n      pop\n      jump\t// out\n        /* \"#utility.yul\":10275:10395   */\n    tag_113:\n        /* \"#utility.yul\":10347:10370   */\n      tag_205\n        /* \"#utility.yul\":10364:10369   */\n      dup2\n        /* \"#utility.yul\":10347:10370   */\n      tag_91\n      jump\t// in\n    tag_205:\n        /* \"#utility.yul\":10340:10345   */\n      dup2\n        /* \"#utility.yul\":10337:10371   */\n      eq\n        /* \"#utility.yul\":10327:10389   */\n      tag_206\n      jumpi\n        /* \"#utility.yul\":10385:10386   */\n      0x00\n        /* \"#utility.yul\":10382:10383   */\n      0x00\n        /* \"#utility.yul\":10375:10387   */\n      revert\n        /* \"#utility.yul\":10327:10389   */\n    tag_206:\n        /* \"#utility.yul\":10275:10395   */\n      pop\n      jump\t// out\n        /* \"#utility.yul\":10401:10542   */\n    tag_114:\n        /* \"#utility.yul\":10457:10462   */\n      0x00\n        /* \"#utility.yul\":10488:10494   */\n      dup2\n        /* \"#utility.yul\":10482:10495   */\n      mload\n        /* \"#utility.yul\":10473:10495   */\n      swap1\n      pop\n        /* \"#utility.yul\":10504:10536   */\n      tag_208\n        /* \"#utility.yul\":10530:10535   */\n      dup2\n        /* \"#utility.yul\":10504:10536   */\n      tag_113\n      jump\t// in\n    tag_208:\n        /* \"#utility.yul\":10401:10542   */\n      swap3\n      swap2\n      pop\n      pop\n      jump\t// out\n        /* \"#utility.yul\":10548:10670   */\n    tag_115:\n        /* \"#utility.yul\":10621:10645   */\n      tag_210\n        /* \"#utility.yul\":10639:10644   */\n      dup2\n        /* \"#utility.yul\":10621:10645   */\n      tag_88\n      jump\t// in\n    tag_210:\n        /* \"#utility.yul\":10614:10619   */\n      dup2\n        /* \"#utility.yul\":10611:10646   */\n      eq\n        /* \"#utility.yul\":10601:10664   */\n      tag_211\n      jumpi\n        /* \"#utility.yul\":10660:10661   */\n      0x00\n        /* \"#utility.yul\":10657:10658   */\n      0x00\n        /* \"#utility.yul\":10650:10662   */\n      revert\n        /* \"#utility.yul\":10601:10664   */\n    tag_211:\n        /* \"#utility.yul\":10548:10670   */\n      pop\n      jump\t// out\n        /* \"#utility.yul\":10676:10819   */\n    tag_116:\n        /* \"#utility.yul\":10733:10738   */\n      0x00\n        /* \"#utility.yul\":10764:10770   */\n      dup2\n        /* \"#utility.yul\":10758:10771   */\n      mload\n        /* \"#utility.yul\":10749:10771   */\n      swap1\n      pop\n        /* \"#utility.yul\":10780:10813   */\n      tag_213\n        /* \"#utility.yul\":10807:10812   */\n      dup2\n        /* \"#utility.yul\":10780:10813   */\n      tag_115\n      jump\t// in\n    tag_213:\n        /* \"#utility.yul\":10676:10819   */\n      swap3\n      swap2\n      pop\n      pop\n      jump\t// out\n        /* \"#utility.yul\":10825:11796   */\n    tag_74:\n        /* \"#utility.yul\":10928:10934   */\n      0x00\n        /* \"#utility.yul\":10936:10942   */\n      0x00\n        /* \"#utility.yul\":10944:10950   */\n      0x00\n        /* \"#utility.yul\":10952:10958   */\n      0x00\n        /* \"#utility.yul\":10960:10966   */\n      0x00\n        /* \"#utility.yul\":11009:11012   */\n      0xa0\n        /* \"#utility.yul\":10997:11006   */\n      dup7\n        /* \"#utility.yul\":10988:10995   */\n      dup9\n        /* \"#utility.yul\":10984:11007   */\n      sub\n        /* \"#utility.yul\":10980:11013   */\n      slt\n        /* \"#utility.yul\":10977:11097   */\n      iszero\n      tag_215\n      jumpi\n        /* \"#utility.yul\":11016:11095   */\n      tag_216\n      tag_82\n      jump\t// in\n    tag_216:\n        /* \"#utility.yul\":10977:11097   */\n    tag_215:\n        /* \"#utility.yul\":11136:11137   */\n      0x00\n        /* \"#utility.yul\":11161:11224   */\n      tag_217\n        /* \"#utility.yul\":11216:11223   */\n      dup9\n        /* \"#utility.yul\":11207:11213   */\n      dup3\n        /* \"#utility.yul\":11196:11205   */\n      dup10\n        /* \"#utility.yul\":11192:11214   */\n      add\n        /* \"#utility.yul\":11161:11224   */\n      tag_112\n      jump\t// in\n    tag_217:\n        /* \"#utility.yul\":11151:11224   */\n      swap6\n      pop\n        /* \"#utility.yul\":11107:11234   */\n      pop\n        /* \"#utility.yul\":11273:11275   */\n      0x20\n        /* \"#utility.yul\":11299:11362   */\n      tag_218\n        /* \"#utility.yul\":11354:11361   */\n      dup9\n        /* \"#utility.yul\":11345:11351   */\n      dup3\n        /* \"#utility.yul\":11334:11343   */\n      dup10\n        /* \"#utility.yul\":11330:11352   */\n      add\n        /* \"#utility.yul\":11299:11362   */\n      tag_114\n      jump\t// in\n    tag_218:\n        /* \"#utility.yul\":11289:11362   */\n      swap5\n      pop\n        /* \"#utility.yul\":11244:11372   */\n      pop\n        /* \"#utility.yul\":11411:11413   */\n      0x40\n        /* \"#utility.yul\":11437:11501   */\n      tag_219\n        /* \"#utility.yul\":11493:11500   */\n      dup9\n        /* \"#utility.yul\":11484:11490   */\n      dup3\n        /* \"#utility.yul\":11473:11482   */\n      dup10\n        /* \"#utility.yul\":11469:11491   */\n      add\n        /* \"#utility.yul\":11437:11501   */\n      tag_116\n      jump\t// in\n    tag_219:\n        /* \"#utility.yul\":11427:11501   */\n      swap4\n      pop\n        /* \"#utility.yul\":11382:11511   */\n      pop\n        /* \"#utility.yul\":11550:11552   */\n      0x60\n        /* \"#utility.yul\":11576:11640   */\n      tag_220\n        /* \"#utility.yul\":11632:11639   */\n      dup9\n        /* \"#utility.yul\":11623:11629   */\n      dup3\n        /* \"#utility.yul\":11612:11621   */\n      dup10\n        /* \"#utility.yul\":11608:11630   */\n      add\n        /* \"#utility.yul\":11576:11640   */\n      tag_116\n      jump\t// in\n    tag_220:\n        /* \"#utility.yul\":11566:11640   */\n      swap3\n      pop\n        /* \"#utility.yul\":11521:11650   */\n      pop\n        /* \"#utility.yul\":11689:11692   */\n      0x80\n        /* \"#utility.yul\":11716:11779   */\n      tag_221\n        /* \"#utility.yul\":11771:11778   */\n      dup9\n        /* \"#utility.yul\":11762:11768   */\n      dup3\n        /* \"#utility.yul\":11751:11760   */\n      dup10\n        /* \"#utility.yul\":11747:11769   */\n      add\n        /* \"#utility.yul\":11716:11779   */\n      tag_112\n      jump\t// in\n    tag_221:\n        /* \"#utility.yul\":11706:11779   */\n      swap2\n      pop\n        /* \"#utility.yul\":11660:11789   */\n      pop\n        /* \"#utility.yul\":10825:11796   */\n      swap3\n      swap6\n      pop\n      swap3\n      swap6\n      swap1\n      swap4\n      pop\n      jump\t// out\n        /* \"#utility.yul\":11802:12212   */\n    tag_78:\n        /* \"#utility.yul\":11842:11849   */\n      0x00\n        /* \"#utility.yul\":11865:11885   */\n      tag_223\n        /* \"#utility.yul\":11883:11884   */\n      dup3\n        /* \"#utility.yul\":11865:11885   */\n      tag_88\n      jump\t// in\n    tag_223:\n        /* \"#utility.yul\":11860:11885   */\n      swap2\n      pop\n        /* \"#utility.yul\":11899:11919   */\n      tag_224\n        /* \"#utility.yul\":11917:11918   */\n      dup4\n        /* \"#utility.yul\":11899:11919   */\n      tag_88\n      jump\t// in\n    tag_224:\n        /* \"#utility.yul\":11894:11919   */\n      swap3\n      pop\n        /* \"#utility.yul\":11954:11955   */\n      dup3\n        /* \"#utility.yul\":11951:11952   */\n      dup3\n        /* \"#utility.yul\":11947:11956   */\n      mul\n        /* \"#utility.yul\":11976:12006   */\n      tag_225\n        /* \"#utility.yul\":11994:12005   */\n      dup2\n        /* \"#utility.yul\":11976:12006   */\n      tag_88\n      jump\t// in\n    tag_225:\n        /* \"#utility.yul\":11965:12006   */\n      swap2\n      pop\n        /* \"#utility.yul\":12155:12156   */\n      dup3\n        /* \"#utility.yul\":12146:12153   */\n      dup3\n        /* \"#utility.yul\":12142:12157   */\n      div\n        /* \"#utility.yul\":12139:12140   */\n      dup5\n        /* \"#utility.yul\":12136:12158   */\n      eq\n        /* \"#utility.yul\":12116:12117   */\n      dup4\n        /* \"#utility.yul\":12109:12118   */\n      iszero\n        /* \"#utility.yul\":12089:12172   */\n      or\n        /* \"#utility.yul\":12066:12205   */\n      tag_226\n      jumpi\n        /* \"#utility.yul\":12185:12203   */\n      tag_227\n      tag_109\n      jump\t// in\n    tag_227:\n        /* \"#utility.yul\":12066:12205   */\n    tag_226:\n        /* \"#utility.yul\":11850:12212   */\n      pop\n        /* \"#utility.yul\":11802:12212   */\n      swap3\n      swap2\n      pop\n      pop\n      jump\t// out\n        /* \"#utility.yul\":12218:12398   */\n    tag_117:\n        /* \"#utility.yul\":12266:12343   */\n      0x4e487b7100000000000000000000000000000000000000000000000000000000\n        /* \"#utility.yul\":12263:12264   */\n      0x00\n        /* \"#utility.yul\":12256:12344   */\n      mstore\n        /* \"#utility.yul\":12363:12367   */\n      0x12\n        /* \"#utility.yul\":12360:12361   */\n      0x04\n        /* \"#utility.yul\":12353:12368   */\n      mstore\n        /* \"#utility.yul\":12387:12391   */\n      0x24\n        /* \"#utility.yul\":12384:12385   */\n      0x00\n        /* \"#utility.yul\":12377:12392   */\n      revert\n        /* \"#utility.yul\":12404:12589   */\n    tag_80:\n        /* \"#utility.yul\":12444:12445   */\n      0x00\n        /* \"#utility.yul\":12461:12481   */\n      tag_230\n        /* \"#utility.yul\":12479:12480   */\n      dup3\n        /* \"#utility.yul\":12461:12481   */\n      tag_88\n      jump\t// in\n    tag_230:\n        /* \"#utility.yul\":12456:12481   */\n      swap2\n      pop\n        /* \"#utility.yul\":12495:12515   */\n      tag_231\n        /* \"#utility.yul\":12513:12514   */\n      dup4\n        /* \"#utility.yul\":12495:12515   */\n      tag_88\n      jump\t// in\n    tag_231:\n        /* \"#utility.yul\":12490:12515   */\n      swap3\n      pop\n        /* \"#utility.yul\":12534:12535   */\n      dup3\n        /* \"#utility.yul\":12524:12559   */\n      tag_232\n      jumpi\n        /* \"#utility.yul\":12539:12557   */\n      tag_233\n      tag_117\n      jump\t// in\n    tag_233:\n        /* \"#utility.yul\":12524:12559   */\n    tag_232:\n        /* \"#utility.yul\":12581:12582   */\n      dup3\n        /* \"#utility.yul\":12578:12579   */\n      dup3\n        /* \"#utility.yul\":12574:12583   */\n      div\n        /* \"#utility.yul\":12569:12583   */\n      swap1\n      pop\n        /* \"#utility.yul\":12404:12589   */\n      swap3\n      swap2\n      pop\n      pop\n      jump\t// out\n\n    auxdata: 0xa26469706673582212201483cab7139d50310cf34d8f6bd63b796f8c8d662cc40c634f5affd2ec57c67b64736f6c634300081e0033\n}\n",
				"bytecode": {
					"linkReferences": {},
					"object": "6080604052670de0b6b3a7640000600155678ac7230489e800006003553480156026575f5ffd5b5073694aa1769357215de4fac081bf1f309adc32530660025f6101000a81548173ffffffffffffffffffffffffffffffffffffffff021916908373ffffffffffffffffffffffffffffffffffffffff1602179055503360045f6101000a81548173ffffffffffffffffffffffffffffffffffffffff021916908373ffffffffffffffffffffffffffffffffffffffff160217905550610c17806100c85f395ff3fe608060405260043610610054575f3560e01c80634407e1e814610058578063590e1ae3146100945780638da5cb5b146100aa5780638edd6eb6146100d4578063b60d4288146100ea578063bea4dfb5146100f4575b5f5ffd5b348015610063575f5ffd5b5061007e6004803603810190610079919061063d565b61011e565b60405161008b9190610680565b60405180910390f35b34801561009f575f5ffd5b506100a8610132565b005b3480156100b5575f5ffd5b506100be6102b0565b6040516100cb91906106a8565b60405180910390f35b3480156100df575f5ffd5b506100e86102d5565b005b6100f2610468565b005b3480156100ff575f5ffd5b50610108610513565b60405161011591906106d9565b60405180910390f35b5f602052805f5260405f205f915090505481565b5f3390505f479050600354811061017e576040517f08c379a00000000000000000000000000000000000000000000000000000000081526004016101759061074c565b60405180910390fd5b5f5f5f8473ffffffffffffffffffffffffffffffffffffffff1673ffffffffffffffffffffffffffffffffffffffff1681526020019081526020015f205490505f8111610200576040517f08c379a00000000000000000000000000000000000000000000000000000000081526004016101f7906107da565b60405180910390fd5b5f8373ffffffffffffffffffffffffffffffffffffffff168260405161022590610825565b5f6040518083038185875af1925050503d805f811461025f576040519150601f19603f3d011682016040523d82523d5f602084013e610264565b606091505b505080915050806102aa576040517f08c379a00000000000000000000000000000000000000000000000000000000081526004016102a190610883565b60405180910390fd5b50505050565b60045f9054906101000a900473ffffffffffffffffffffffffffffffffffffffff1681565b5f4790505f3390506003546102e9836105b0565b101561032a576040517f08c379a0000000000000000000000000000000000000000000000000000000008152600401610321906108eb565b60405180910390fd5b8073ffffffffffffffffffffffffffffffffffffffff1660045f9054906101000a900473ffffffffffffffffffffffffffffffffffffffff1673ffffffffffffffffffffffffffffffffffffffff16146103b9576040517f08c379a00000000000000000000000000000000000000000000000000000000081526004016103b090610953565b60405180910390fd5b5f8173ffffffffffffffffffffffffffffffffffffffff16836040516103de90610825565b5f6040518083038185875af1925050503d805f8114610418576040519150601f19603f3d011682016040523d82523d5f602084013e61041d565b606091505b50508091505080610463576040517f08c379a000000000000000000000000000000000000000000000000000000000815260040161045a90610883565b60405180910390fd5b505050565b5f3490505f610476826105b0565b90506001548110156104bd576040517f08c379a00000000000000000000000000000000000000000000000000000000081526004016104b4906109bb565b60405180910390fd5b345f5f3373ffffffffffffffffffffffffffffffffffffffff1673ffffffffffffffffffffffffffffffffffffffff1681526020019081526020015f205f8282546105089190610a06565b925050819055505050565b5f5f60025f9054906101000a900473ffffffffffffffffffffffffffffffffffffffff1673ffffffffffffffffffffffffffffffffffffffff1663feaf968c6040518163ffffffff1660e01b815260040160a060405180830381865afa15801561057f573d5f5f3e3d5ffd5b505050506040513d601f19601f820116820180604052508101906105a39190610acc565b5050509150508091505090565b5f5f6105ba610513565b90506305f5e10081846105cd9190610b43565b6105d79190610bb1565b915050919050565b5f5ffd5b5f73ffffffffffffffffffffffffffffffffffffffff82169050919050565b5f61060c826105e3565b9050919050565b61061c81610602565b8114610626575f5ffd5b50565b5f8135905061063781610613565b92915050565b5f60208284031215610652576106516105df565b5b5f61065f84828501610629565b91505092915050565b5f819050919050565b61067a81610668565b82525050565b5f6020820190506106935f830184610671565b92915050565b6106a281610602565b82525050565b5f6020820190506106bb5f830184610699565b92915050565b5f819050919050565b6106d3816106c1565b82525050565b5f6020820190506106ec5f8301846106ca565b92915050565b5f82825260208201905092915050565b7f54617267657420697320726561636865642100000000000000000000000000005f82015250565b5f6107366012836106f2565b915061074182610702565b602082019050919050565b5f6020820190508181035f8301526107638161072a565b9050919050565b7f796f752068617665206e6f2062616c616e636520696e207468697320636f6e745f8201527f7261637421000000000000000000000000000000000000000000000000000000602082015250565b5f6107c46025836106f2565b91506107cf8261076a565b604082019050919050565b5f6020820190508181035f8301526107f1816107b8565b9050919050565b5f81905092915050565b50565b5f6108105f836107f8565b915061081b82610802565b5f82019050919050565b5f61082f82610805565b9150819050919050565b7f4661696c656421000000000000000000000000000000000000000000000000005f82015250565b5f61086d6007836106f2565b915061087882610839565b602082019050919050565b5f6020820190508181035f83015261089a81610861565b9050919050565b7f4e6f742052656163682054617267657420416d6f756e742100000000000000005f82015250565b5f6108d56018836106f2565b91506108e0826108a1565b602082019050919050565b5f6020820190508181035f830152610902816108c9565b9050919050565b7f796f7520617265206e6f7420746865206f776e657221000000000000000000005f82015250565b5f61093d6016836106f2565b915061094882610909565b602082019050919050565b5f6020820190508181035f83015261096a81610931565b9050919050565b7f55534420416d6f756e7420746f6f206c6f7721000000000000000000000000005f82015250565b5f6109a56013836106f2565b91506109b082610971565b602082019050919050565b5f6020820190508181035f8301526109d281610999565b9050919050565b7f4e487b71000000000000000000000000000000000000000000000000000000005f52601160045260245ffd5b5f610a1082610668565b9150610a1b83610668565b9250828201905080821115610a3357610a326109d9565b5b92915050565b5f69ffffffffffffffffffff82169050919050565b610a5781610a39565b8114610a61575f5ffd5b50565b5f81519050610a7281610a4e565b92915050565b610a81816106c1565b8114610a8b575f5ffd5b50565b5f81519050610a9c81610a78565b92915050565b610aab81610668565b8114610ab5575f5ffd5b50565b5f81519050610ac681610aa2565b92915050565b5f5f5f5f5f60a08688031215610ae557610ae46105df565b5b5f610af288828901610a64565b9550506020610b0388828901610a8e565b9450506040610b1488828901610ab8565b9350506060610b2588828901610ab8565b9250506080610b3688828901610a64565b9150509295509295909350565b5f610b4d82610668565b9150610b5883610668565b9250828202610b6681610668565b91508282048414831517610b7d57610b7c6109d9565b5b5092915050565b7f4e487b71000000000000000000000000000000000000000000000000000000005f52601260045260245ffd5b5f610bbb82610668565b9150610bc683610668565b925082610bd657610bd5610b84565b5b82820490509291505056fea26469706673582212201483cab7139d50310cf34d8f6bd63b796f8c8d662cc40c634f5affd2ec57c67b64736f6c634300081e0033",
					"opcodes": "PUSH1 0x80 PUSH1 0x40 MSTORE PUSH8 0xDE0B6B3A7640000 PUSH1 0x1 SSTORE PUSH8 0x8AC7230489E80000 PUSH1 0x3 SSTORE CALLVALUE DUP1 ISZERO PUSH1 0x26 JUMPI PUSH0 PUSH0 REVERT JUMPDEST POP PUSH20 0x694AA1769357215DE4FAC081BF1F309ADC325306 PUSH1 0x2 PUSH0 PUSH2 0x100 EXP DUP2 SLOAD DUP2 PUSH20 0xFFFFFFFFFFFFFFFFFFFFFFFFFFFFFFFFFFFFFFFF MUL NOT AND SWAP1 DUP4 PUSH20 0xFFFFFFFFFFFFFFFFFFFFFFFFFFFFFFFFFFFFFFFF AND MUL OR SWAP1 SSTORE POP CALLER PUSH1 0x4 PUSH0 PUSH2 0x100 EXP DUP2 SLOAD DUP2 PUSH20 0xFFFFFFFFFFFFFFFFFFFFFFFFFFFFFFFFFFFFFFFF MUL NOT AND SWAP1 DUP4 PUSH20 0xFFFFFFFFFFFFFFFFFFFFFFFFFFFFFFFFFFFFFFFF AND MUL OR SWAP1 SSTORE POP PUSH2 0xC17 DUP1 PUSH2 0xC8 PUSH0 CODECOPY PUSH0 RETURN INVALID PUSH1 0x80 PUSH1 0x40 MSTORE PUSH1 0x4 CALLDATASIZE LT PUSH2 0x54 JUMPI PUSH0 CALLDATALOAD PUSH1 0xE0 SHR DUP1 PUSH4 0x4407E1E8 EQ PUSH2 0x58 JUMPI DUP1 PUSH4 0x590E1AE3 EQ PUSH2 0x94 JUMPI DUP1 PUSH4 0x8DA5CB5B EQ PUSH2 0xAA JUMPI DUP1 PUSH4 0x8EDD6EB6 EQ PUSH2 0xD4 JUMPI DUP1 PUSH4 0xB60D4288 EQ PUSH2 0xEA JUMPI DUP1 PUSH4 0xBEA4DFB5 EQ PUSH2 0xF4 JUMPI JUMPDEST PUSH0 PUSH0 REVERT JUMPDEST CALLVALUE DUP1 ISZERO PUSH2 0x63 JUMPI PUSH0 PUSH0 REVERT JUMPDEST POP PUSH2 0x7E PUSH1 0x4 DUP1 CALLDATASIZE SUB DUP2 ADD SWAP1 PUSH2 0x79 SWAP2 SWAP1 PUSH2 0x63D JUMP JUMPDEST PUSH2 0x11E JUMP JUMPDEST PUSH1 0x40 MLOAD PUSH2 0x8B SWAP2 SWAP1 PUSH2 0x680 JUMP JUMPDEST PUSH1 0x40 MLOAD DUP1 SWAP2 SUB SWAP1 RETURN JUMPDEST CALLVALUE DUP1 ISZERO PUSH2 0x9F JUMPI PUSH0 PUSH0 REVERT JUMPDEST POP PUSH2 0xA8 PUSH2 0x132 JUMP JUMPDEST STOP JUMPDEST CALLVALUE DUP1 ISZERO PUSH2 0xB5 JUMPI PUSH0 PUSH0 REVERT JUMPDEST POP PUSH2 0xBE PUSH2 0x2B0 JUMP JUMPDEST PUSH1 0x40 MLOAD PUSH2 0xCB SWAP2 SWAP1 PUSH2 0x6A8 JUMP JUMPDEST PUSH1 0x40 MLOAD DUP1 SWAP2 SUB SWAP1 RETURN JUMPDEST CALLVALUE DUP1 ISZERO PUSH2 0xDF JUMPI PUSH0 PUSH0 REVERT JUMPDEST POP PUSH2 0xE8 PUSH2 0x2D5 JUMP JUMPDEST STOP JUMPDEST PUSH2 0xF2 PUSH2 0x468 JUMP JUMPDEST STOP JUMPDEST CALLVALUE DUP1 ISZERO PUSH2 0xFF JUMPI PUSH0 PUSH0 REVERT JUMPDEST POP PUSH2 0x108 PUSH2 0x513 JUMP JUMPDEST PUSH1 0x40 MLOAD PUSH2 0x115 SWAP2 SWAP1 PUSH2 0x6D9 JUMP JUMPDEST PUSH1 0x40 MLOAD DUP1 SWAP2 SUB SWAP1 RETURN JUMPDEST PUSH0 PUSH1 0x20 MSTORE DUP1 PUSH0 MSTORE PUSH1 0x40 PUSH0 KECCAK256 PUSH0 SWAP2 POP SWAP1 POP SLOAD DUP2 JUMP JUMPDEST PUSH0 CALLER SWAP1 POP PUSH0 SELFBALANCE SWAP1 POP PUSH1 0x3 SLOAD DUP2 LT PUSH2 0x17E JUMPI PUSH1 0x40 MLOAD PUSH32 0x8C379A000000000000000000000000000000000000000000000000000000000 DUP2 MSTORE PUSH1 0x4 ADD PUSH2 0x175 SWAP1 PUSH2 0x74C JUMP JUMPDEST PUSH1 0x40 MLOAD DUP1 SWAP2 SUB SWAP1 REVERT JUMPDEST PUSH0 PUSH0 PUSH0 DUP5 PUSH20 0xFFFFFFFFFFFFFFFFFFFFFFFFFFFFFFFFFFFFFFFF AND PUSH20 0xFFFFFFFFFFFFFFFFFFFFFFFFFFFFFFFFFFFFFFFF AND DUP2 MSTORE PUSH1 0x20 ADD SWAP1 DUP2 MSTORE PUSH1 0x20 ADD PUSH0 KECCAK256 SLOAD SWAP1 POP PUSH0 DUP2 GT PUSH2 0x200 JUMPI PUSH1 0x40 MLOAD PUSH32 0x8C379A000000000000000000000000000000000000000000000000000000000 DUP2 MSTORE PUSH1 0x4 ADD PUSH2 0x1F7 SWAP1 PUSH2 0x7DA JUMP JUMPDEST PUSH1 0x40 MLOAD DUP1 SWAP2 SUB SWAP1 REVERT JUMPDEST PUSH0 DUP4 PUSH20 0xFFFFFFFFFFFFFFFFFFFFFFFFFFFFFFFFFFFFFFFF AND DUP3 PUSH1 0x40 MLOAD PUSH2 0x225 SWAP1 PUSH2 0x825 JUMP JUMPDEST PUSH0 PUSH1 0x40 MLOAD DUP1 DUP4 SUB DUP2 DUP6 DUP8 GAS CALL SWAP3 POP POP POP RETURNDATASIZE DUP1 PUSH0 DUP2 EQ PUSH2 0x25F JUMPI PUSH1 0x40 MLOAD SWAP2 POP PUSH1 0x1F NOT PUSH1 0x3F RETURNDATASIZE ADD AND DUP3 ADD PUSH1 0x40 MSTORE RETURNDATASIZE DUP3 MSTORE RETURNDATASIZE PUSH0 PUSH1 0x20 DUP5 ADD RETURNDATACOPY PUSH2 0x264 JUMP JUMPDEST PUSH1 0x60 SWAP2 POP JUMPDEST POP POP DUP1 SWAP2 POP POP DUP1 PUSH2 0x2AA JUMPI PUSH1 0x40 MLOAD PUSH32 0x8C379A000000000000000000000000000000000000000000000000000000000 DUP2 MSTORE PUSH1 0x4 ADD PUSH2 0x2A1 SWAP1 PUSH2 0x883 JUMP JUMPDEST PUSH1 0x40 MLOAD DUP1 SWAP2 SUB SWAP1 REVERT JUMPDEST POP POP POP POP JUMP JUMPDEST PUSH1 0x4 PUSH0 SWAP1 SLOAD SWAP1 PUSH2 0x100 EXP SWAP1 DIV PUSH20 0xFFFFFFFFFFFFFFFFFFFFFFFFFFFFFFFFFFFFFFFF AND DUP2 JUMP JUMPDEST PUSH0 SELFBALANCE SWAP1 POP PUSH0 CALLER SWAP1 POP PUSH1 0x3 SLOAD PUSH2 0x2E9 DUP4 PUSH2 0x5B0 JUMP JUMPDEST LT ISZERO PUSH2 0x32A JUMPI PUSH1 0x40 MLOAD PUSH32 0x8C379A000000000000000000000000000000000000000000000000000000000 DUP2 MSTORE PUSH1 0x4 ADD PUSH2 0x321 SWAP1 PUSH2 0x8EB JUMP JUMPDEST PUSH1 0x40 MLOAD DUP1 SWAP2 SUB SWAP1 REVERT JUMPDEST DUP1 PUSH20 0xFFFFFFFFFFFFFFFFFFFFFFFFFFFFFFFFFFFFFFFF AND PUSH1 0x4 PUSH0 SWAP1 SLOAD SWAP1 PUSH2 0x100 EXP SWAP1 DIV PUSH20 0xFFFFFFFFFFFFFFFFFFFFFFFFFFFFFFFFFFFFFFFF AND PUSH20 0xFFFFFFFFFFFFFFFFFFFFFFFFFFFFFFFFFFFFFFFF AND EQ PUSH2 0x3B9 JUMPI PUSH1 0x40 MLOAD PUSH32 0x8C379A000000000000000000000000000000000000000000000000000000000 DUP2 MSTORE PUSH1 0x4 ADD PUSH2 0x3B0 SWAP1 PUSH2 0x953 JUMP JUMPDEST PUSH1 0x40 MLOAD DUP1 SWAP2 SUB SWAP1 REVERT JUMPDEST PUSH0 DUP2 PUSH20 0xFFFFFFFFFFFFFFFFFFFFFFFFFFFFFFFFFFFFFFFF AND DUP4 PUSH1 0x40 MLOAD PUSH2 0x3DE SWAP1 PUSH2 0x825 JUMP JUMPDEST PUSH0 PUSH1 0x40 MLOAD DUP1 DUP4 SUB DUP2 DUP6 DUP8 GAS CALL SWAP3 POP POP POP RETURNDATASIZE DUP1 PUSH0 DUP2 EQ PUSH2 0x418 JUMPI PUSH1 0x40 MLOAD SWAP2 POP PUSH1 0x1F NOT PUSH1 0x3F RETURNDATASIZE ADD AND DUP3 ADD PUSH1 0x40 MSTORE RETURNDATASIZE DUP3 MSTORE RETURNDATASIZE PUSH0 PUSH1 0x20 DUP5 ADD RETURNDATACOPY PUSH2 0x41D JUMP JUMPDEST PUSH1 0x60 SWAP2 POP JUMPDEST POP POP DUP1 SWAP2 POP POP DUP1 PUSH2 0x463 JUMPI PUSH1 0x40 MLOAD PUSH32 0x8C379A000000000000000000000000000000000000000000000000000000000 DUP2 MSTORE PUSH1 0x4 ADD PUSH2 0x45A SWAP1 PUSH2 0x883 JUMP JUMPDEST PUSH1 0x40 MLOAD DUP1 SWAP2 SUB SWAP1 REVERT JUMPDEST POP POP POP JUMP JUMPDEST PUSH0 CALLVALUE SWAP1 POP PUSH0 PUSH2 0x476 DUP3 PUSH2 0x5B0 JUMP JUMPDEST SWAP1 POP PUSH1 0x1 SLOAD DUP2 LT ISZERO PUSH2 0x4BD JUMPI PUSH1 0x40 MLOAD PUSH32 0x8C379A000000000000000000000000000000000000000000000000000000000 DUP2 MSTORE PUSH1 0x4 ADD PUSH2 0x4B4 SWAP1 PUSH2 0x9BB JUMP JUMPDEST PUSH1 0x40 MLOAD DUP1 SWAP2 SUB SWAP1 REVERT JUMPDEST CALLVALUE PUSH0 PUSH0 CALLER PUSH20 0xFFFFFFFFFFFFFFFFFFFFFFFFFFFFFFFFFFFFFFFF AND PUSH20 0xFFFFFFFFFFFFFFFFFFFFFFFFFFFFFFFFFFFFFFFF AND DUP2 MSTORE PUSH1 0x20 ADD SWAP1 DUP2 MSTORE PUSH1 0x20 ADD PUSH0 KECCAK256 PUSH0 DUP3 DUP3 SLOAD PUSH2 0x508 SWAP2 SWAP1 PUSH2 0xA06 JUMP JUMPDEST SWAP3 POP POP DUP2 SWAP1 SSTORE POP POP POP JUMP JUMPDEST PUSH0 PUSH0 PUSH1 0x2 PUSH0 SWAP1 SLOAD SWAP1 PUSH2 0x100 EXP SWAP1 DIV PUSH20 0xFFFFFFFFFFFFFFFFFFFFFFFFFFFFFFFFFFFFFFFF AND PUSH20 0xFFFFFFFFFFFFFFFFFFFFFFFFFFFFFFFFFFFFFFFF AND PUSH4 0xFEAF968C PUSH1 0x40 MLOAD DUP2 PUSH4 0xFFFFFFFF AND PUSH1 0xE0 SHL DUP2 MSTORE PUSH1 0x4 ADD PUSH1 0xA0 PUSH1 0x40 MLOAD DUP1 DUP4 SUB DUP2 DUP7 GAS STATICCALL ISZERO DUP1 ISZERO PUSH2 0x57F JUMPI RETURNDATASIZE PUSH0 PUSH0 RETURNDATACOPY RETURNDATASIZE PUSH0 REVERT JUMPDEST POP POP POP POP PUSH1 0x40 MLOAD RETURNDATASIZE PUSH1 0x1F NOT PUSH1 0x1F DUP3 ADD AND DUP3 ADD DUP1 PUSH1 0x40 MSTORE POP DUP2 ADD SWAP1 PUSH2 0x5A3 SWAP2 SWAP1 PUSH2 0xACC JUMP JUMPDEST POP POP POP SWAP2 POP POP DUP1 SWAP2 POP POP SWAP1 JUMP JUMPDEST PUSH0 PUSH0 PUSH2 0x5BA PUSH2 0x513 JUMP JUMPDEST SWAP1 POP PUSH4 0x5F5E100 DUP2 DUP5 PUSH2 0x5CD SWAP2 SWAP1 PUSH2 0xB43 JUMP JUMPDEST PUSH2 0x5D7 SWAP2 SWAP1 PUSH2 0xBB1 JUMP JUMPDEST SWAP2 POP POP SWAP2 SWAP1 POP JUMP JUMPDEST PUSH0 PUSH0 REVERT JUMPDEST PUSH0 PUSH20 0xFFFFFFFFFFFFFFFFFFFFFFFFFFFFFFFFFFFFFFFF DUP3 AND SWAP1 POP SWAP2 SWAP1 POP JUMP JUMPDEST PUSH0 PUSH2 0x60C DUP3 PUSH2 0x5E3 JUMP JUMPDEST SWAP1 POP SWAP2 SWAP1 POP JUMP JUMPDEST PUSH2 0x61C DUP2 PUSH2 0x602 JUMP JUMPDEST DUP2 EQ PUSH2 0x626 JUMPI PUSH0 PUSH0 REVERT JUMPDEST POP JUMP JUMPDEST PUSH0 DUP2 CALLDATALOAD SWAP1 POP PUSH2 0x637 DUP2 PUSH2 0x613 JUMP JUMPDEST SWAP3 SWAP2 POP POP JUMP JUMPDEST PUSH0 PUSH1 0x20 DUP3 DUP5 SUB SLT ISZERO PUSH2 0x652 JUMPI PUSH2 0x651 PUSH2 0x5DF JUMP JUMPDEST JUMPDEST PUSH0 PUSH2 0x65F DUP5 DUP3 DUP6 ADD PUSH2 0x629 JUMP JUMPDEST SWAP2 POP POP SWAP3 SWAP2 POP POP JUMP JUMPDEST PUSH0 DUP2 SWAP1 POP SWAP2 SWAP1 POP JUMP JUMPDEST PUSH2 0x67A DUP2 PUSH2 0x668 JUMP JUMPDEST DUP3 MSTORE POP POP JUMP JUMPDEST PUSH0 PUSH1 0x20 DUP3 ADD SWAP1 POP PUSH2 0x693 PUSH0 DUP4 ADD DUP5 PUSH2 0x671 JUMP JUMPDEST SWAP3 SWAP2 POP POP JUMP JUMPDEST PUSH2 0x6A2 DUP2 PUSH2 0x602 JUMP JUMPDEST DUP3 MSTORE POP POP JUMP JUMPDEST PUSH0 PUSH1 0x20 DUP3 ADD SWAP1 POP PUSH2 0x6BB PUSH0 DUP4 ADD DUP5 PUSH2 0x699 JUMP JUMPDEST SWAP3 SWAP2 POP POP JUMP JUMPDEST PUSH0 DUP2 SWAP1 POP SWAP2 SWAP1 POP JUMP JUMPDEST PUSH2 0x6D3 DUP2 PUSH2 0x6C1 JUMP JUMPDEST DUP3 MSTORE POP POP JUMP JUMPDEST PUSH0 PUSH1 0x20 DUP3 ADD SWAP1 POP PUSH2 0x6EC PUSH0 DUP4 ADD DUP5 PUSH2 0x6CA JUMP JUMPDEST SWAP3 SWAP2 POP POP JUMP JUMPDEST PUSH0 DUP3 DUP3 MSTORE PUSH1 0x20 DUP3 ADD SWAP1 POP SWAP3 SWAP2 POP POP JUMP JUMPDEST PUSH32 0x5461726765742069732072656163686564210000000000000000000000000000 PUSH0 DUP3 ADD MSTORE POP JUMP JUMPDEST PUSH0 PUSH2 0x736 PUSH1 0x12 DUP4 PUSH2 0x6F2 JUMP JUMPDEST SWAP2 POP PUSH2 0x741 DUP3 PUSH2 0x702 JUMP JUMPDEST PUSH1 0x20 DUP3 ADD SWAP1 POP SWAP2 SWAP1 POP JUMP JUMPDEST PUSH0 PUSH1 0x20 DUP3 ADD SWAP1 POP DUP2 DUP2 SUB PUSH0 DUP4 ADD MSTORE PUSH2 0x763 DUP2 PUSH2 0x72A JUMP JUMPDEST SWAP1 POP SWAP2 SWAP1 POP JUMP JUMPDEST PUSH32 0x796F752068617665206E6F2062616C616E636520696E207468697320636F6E74 PUSH0 DUP3 ADD MSTORE PUSH32 0x7261637421000000000000000000000000000000000000000000000000000000 PUSH1 0x20 DUP3 ADD MSTORE POP JUMP JUMPDEST PUSH0 PUSH2 0x7C4 PUSH1 0x25 DUP4 PUSH2 0x6F2 JUMP JUMPDEST SWAP2 POP PUSH2 0x7CF DUP3 PUSH2 0x76A JUMP JUMPDEST PUSH1 0x40 DUP3 ADD SWAP1 POP SWAP2 SWAP1 POP JUMP JUMPDEST PUSH0 PUSH1 0x20 DUP3 ADD SWAP1 POP DUP2 DUP2 SUB PUSH0 DUP4 ADD MSTORE PUSH2 0x7F1 DUP2 PUSH2 0x7B8 JUMP JUMPDEST SWAP1 POP SWAP2 SWAP1 POP JUMP JUMPDEST PUSH0 DUP2 SWAP1 POP SWAP3 SWAP2 POP POP JUMP JUMPDEST POP JUMP JUMPDEST PUSH0 PUSH2 0x810 PUSH0 DUP4 PUSH2 0x7F8 JUMP JUMPDEST SWAP2 POP PUSH2 0x81B DUP3 PUSH2 0x802 JUMP JUMPDEST PUSH0 DUP3 ADD SWAP1 POP SWAP2 SWAP1 POP JUMP JUMPDEST PUSH0 PUSH2 0x82F DUP3 PUSH2 0x805 JUMP JUMPDEST SWAP2 POP DUP2 SWAP1 POP SWAP2 SWAP1 POP JUMP JUMPDEST PUSH32 0x4661696C65642100000000000000000000000000000000000000000000000000 PUSH0 DUP3 ADD MSTORE POP JUMP JUMPDEST PUSH0 PUSH2 0x86D PUSH1 0x7 DUP4 PUSH2 0x6F2 JUMP JUMPDEST SWAP2 POP PUSH2 0x878 DUP3 PUSH2 0x839 JUMP JUMPDEST PUSH1 0x20 DUP3 ADD SWAP1 POP SWAP2 SWAP1 POP JUMP JUMPDEST PUSH0 PUSH1 0x20 DUP3 ADD SWAP1 POP DUP2 DUP2 SUB PUSH0 DUP4 ADD MSTORE PUSH2 0x89A DUP2 PUSH2 0x861 JUMP JUMPDEST SWAP1 POP SWAP2 SWAP1 POP JUMP JUMPDEST PUSH32 0x4E6F742052656163682054617267657420416D6F756E74210000000000000000 PUSH0 DUP3 ADD MSTORE POP JUMP JUMPDEST PUSH0 PUSH2 0x8D5 PUSH1 0x18 DUP4 PUSH2 0x6F2 JUMP JUMPDEST SWAP2 POP PUSH2 0x8E0 DUP3 PUSH2 0x8A1 JUMP JUMPDEST PUSH1 0x20 DUP3 ADD SWAP1 POP SWAP2 SWAP1 POP JUMP JUMPDEST PUSH0 PUSH1 0x20 DUP3 ADD SWAP1 POP DUP2 DUP2 SUB PUSH0 DUP4 ADD MSTORE PUSH2 0x902 DUP2 PUSH2 0x8C9 JUMP JUMPDEST SWAP1 POP SWAP2 SWAP1 POP JUMP JUMPDEST PUSH32 0x796F7520617265206E6F7420746865206F776E65722100000000000000000000 PUSH0 DUP3 ADD MSTORE POP JUMP JUMPDEST PUSH0 PUSH2 0x93D PUSH1 0x16 DUP4 PUSH2 0x6F2 JUMP JUMPDEST SWAP2 POP PUSH2 0x948 DUP3 PUSH2 0x909 JUMP JUMPDEST PUSH1 0x20 DUP3 ADD SWAP1 POP SWAP2 SWAP1 POP JUMP JUMPDEST PUSH0 PUSH1 0x20 DUP3 ADD SWAP1 POP DUP2 DUP2 SUB PUSH0 DUP4 ADD MSTORE PUSH2 0x96A DUP2 PUSH2 0x931 JUMP JUMPDEST SWAP1 POP SWAP2 SWAP1 POP JUMP JUMPDEST PUSH32 0x55534420416D6F756E7420746F6F206C6F772100000000000000000000000000 PUSH0 DUP3 ADD MSTORE POP JUMP JUMPDEST PUSH0 PUSH2 0x9A5 PUSH1 0x13 DUP4 PUSH2 0x6F2 JUMP JUMPDEST SWAP2 POP PUSH2 0x9B0 DUP3 PUSH2 0x971 JUMP JUMPDEST PUSH1 0x20 DUP3 ADD SWAP1 POP SWAP2 SWAP1 POP JUMP JUMPDEST PUSH0 PUSH1 0x20 DUP3 ADD SWAP1 POP DUP2 DUP2 SUB PUSH0 DUP4 ADD MSTORE PUSH2 0x9D2 DUP2 PUSH2 0x999 JUMP JUMPDEST SWAP1 POP SWAP2 SWAP1 POP JUMP JUMPDEST PUSH32 0x4E487B7100000000000000000000000000000000000000000000000000000000 PUSH0 MSTORE PUSH1 0x11 PUSH1 0x4 MSTORE PUSH1 0x24 PUSH0 REVERT JUMPDEST PUSH0 PUSH2 0xA10 DUP3 PUSH2 0x668 JUMP JUMPDEST SWAP2 POP PUSH2 0xA1B DUP4 PUSH2 0x668 JUMP JUMPDEST SWAP3 POP DUP3 DUP3 ADD SWAP1 POP DUP1 DUP3 GT ISZERO PUSH2 0xA33 JUMPI PUSH2 0xA32 PUSH2 0x9D9 JUMP JUMPDEST JUMPDEST SWAP3 SWAP2 POP POP JUMP JUMPDEST PUSH0 PUSH10 0xFFFFFFFFFFFFFFFFFFFF DUP3 AND SWAP1 POP SWAP2 SWAP1 POP JUMP JUMPDEST PUSH2 0xA57 DUP2 PUSH2 0xA39 JUMP JUMPDEST DUP2 EQ PUSH2 0xA61 JUMPI PUSH0 PUSH0 REVERT JUMPDEST POP JUMP JUMPDEST PUSH0 DUP2 MLOAD SWAP1 POP PUSH2 0xA72 DUP2 PUSH2 0xA4E JUMP JUMPDEST SWAP3 SWAP2 POP POP JUMP JUMPDEST PUSH2 0xA81 DUP2 PUSH2 0x6C1 JUMP JUMPDEST DUP2 EQ PUSH2 0xA8B JUMPI PUSH0 PUSH0 REVERT JUMPDEST POP JUMP JUMPDEST PUSH0 DUP2 MLOAD SWAP1 POP PUSH2 0xA9C DUP2 PUSH2 0xA78 JUMP JUMPDEST SWAP3 SWAP2 POP POP JUMP JUMPDEST PUSH2 0xAAB DUP2 PUSH2 0x668 JUMP JUMPDEST DUP2 EQ PUSH2 0xAB5 JUMPI PUSH0 PUSH0 REVERT JUMPDEST POP JUMP JUMPDEST PUSH0 DUP2 MLOAD SWAP1 POP PUSH2 0xAC6 DUP2 PUSH2 0xAA2 JUMP JUMPDEST SWAP3 SWAP2 POP POP JUMP JUMPDEST PUSH0 PUSH0 PUSH0 PUSH0 PUSH0 PUSH1 0xA0 DUP7 DUP9 SUB SLT ISZERO PUSH2 0xAE5 JUMPI PUSH2 0xAE4 PUSH2 0x5DF JUMP JUMPDEST JUMPDEST PUSH0 PUSH2 0xAF2 DUP9 DUP3 DUP10 ADD PUSH2 0xA64 JUMP JUMPDEST SWAP6 POP POP PUSH1 0x20 PUSH2 0xB03 DUP9 DUP3 DUP10 ADD PUSH2 0xA8E JUMP JUMPDEST SWAP5 POP POP PUSH1 0x40 PUSH2 0xB14 DUP9 DUP3 DUP10 ADD PUSH2 0xAB8 JUMP JUMPDEST SWAP4 POP POP PUSH1 0x60 PUSH2 0xB25 DUP9 DUP3 DUP10 ADD PUSH2 0xAB8 JUMP JUMPDEST SWAP3 POP POP PUSH1 0x80 PUSH2 0xB36 DUP9 DUP3 DUP10 ADD PUSH2 0xA64 JUMP JUMPDEST SWAP2 POP POP SWAP3 SWAP6 POP SWAP3 SWAP6 SWAP1 SWAP4 POP JUMP JUMPDEST PUSH0 PUSH2 0xB4D DUP3 PUSH2 0x668 JUMP JUMPDEST SWAP2 POP PUSH2 0xB58 DUP4 PUSH2 0x668 JUMP JUMPDEST SWAP3 POP DUP3 DUP3 MUL PUSH2 0xB66 DUP2 PUSH2 0x668 JUMP JUMPDEST SWAP2 POP DUP3 DUP3 DIV DUP5 EQ DUP4 ISZERO OR PUSH2 0xB7D JUMPI PUSH2 0xB7C PUSH2 0x9D9 JUMP JUMPDEST JUMPDEST POP SWAP3 SWAP2 POP POP JUMP JUMPDEST PUSH32 0x4E487B7100000000000000000000000000000000000000000000000000000000 PUSH0 MSTORE PUSH1 0x12 PUSH1 0x4 MSTORE PUSH1 0x24 PUSH0 REVERT JUMPDEST PUSH0 PUSH2 0xBBB DUP3 PUSH2 0x668 JUMP JUMPDEST SWAP2 POP PUSH2 0xBC6 DUP4 PUSH2 0x668 JUMP JUMPDEST SWAP3 POP DUP3 PUSH2 0xBD6 JUMPI PUSH2 0xBD5 PUSH2 0xB84 JUMP JUMPDEST JUMPDEST DUP3 DUP3 DIV SWAP1 POP SWAP3 SWAP2 POP POP JUMP INVALID LOG2 PUSH5 0x6970667358 0x22 SLT KECCAK256 EQ DUP4 0xCA 0xB7 SGT SWAP14 POP BALANCE 0xC RETURN 0x4D DUP16 PUSH12 0xD63B796F8C8D662CC40C634F GAS SELFDESTRUCT 0xD2 EOFCREATE 0x57 0xC6 PUSH28 0x64736F6C634300081E00330000000000000000000000000000000000 "
				},
				"gasEstimates": {
					"creation": {
						"codeDepositCost": "619000",
						"executionCost": "93392",
						"totalCost": "712392"
					},
					"external": {
						"fund()": "infinite",
						"funderToAmount(address)": "2779",
						"getChainlinkDataFeedLatestAnswer()": "infinite",
						"getFund()": "infinite",
						"owner()": "2530",
						"refund()": "infinite"
					},
					"internal": {
						"convertEth2USD(uint256)": "infinite"
					}
				},
				"methodIdentifiers": {
					"fund()": "b60d4288",
					"funderToAmount(address)": "4407e1e8",
					"getChainlinkDataFeedLatestAnswer()": "bea4dfb5",
					"getFund()": "8edd6eb6",
					"owner()": "8da5cb5b",
					"refund()": "590e1ae3"
				}
			},
			"storageLayout": {
				"storage": [
					{
						"astId": 53,
						"contract": "FundMe.sol:FundMe",
						"label": "funderToAmount",
						"offset": 0,
						"slot": "0",
						"type": "t_mapping(t_address,t_uint256)"
					},
					{
						"astId": 60,
						"contract": "FundMe.sol:FundMe",
						"label": "MIN_AMOUNT",
						"offset": 0,
						"slot": "1",
						"type": "t_uint256"
					},
					{
						"astId": 63,
						"contract": "FundMe.sol:FundMe",
						"label": "priceFeed",
						"offset": 0,
						"slot": "2",
						"type": "t_contract(AggregatorV3Interface)45"
					},
					{
						"astId": 70,
						"contract": "FundMe.sol:FundMe",
						"label": "TARGET_AMOUNT",
						"offset": 0,
						"slot": "3",
						"type": "t_uint256"
					},
					{
						"astId": 72,
						"contract": "FundMe.sol:FundMe",
						"label": "owner",
						"offset": 0,
						"slot": "4",
						"type": "t_address"
					}
				],
				"types": {
					"t_address": {
						"encoding": "inplace",
						"label": "address",
						"numberOfBytes": "20"
					},
					"t_contract(AggregatorV3Interface)45": {
						"encoding": "inplace",
						"label": "contract AggregatorV3Interface",
						"numberOfBytes": "20"
					},
					"t_mapping(t_address,t_uint256)": {
						"encoding": "mapping",
						"key": "t_address",
						"label": "mapping(address => uint256)",
						"numberOfBytes": "32",
						"value": "t_uint256"
					},
					"t_uint256": {
						"encoding": "inplace",
						"label": "uint256",
						"numberOfBytes": "32"
					}
				}
			},
			"userdoc": {
				"kind": "user",
				"methods": {
					"getChainlinkDataFeedLatestAnswer()": {
						"notice": "Returns the latest answer."
					}
				},
				"version": 1
			}
		}
	}
}